{
  "contractName": "SampleERC1820Implementer",
  "abi": [
    {
      "inputs": [
        {
          "internalType": "bytes32",
          "name": "interfaceHash",
          "type": "bytes32"
        },
        {
          "internalType": "address",
          "name": "addr",
          "type": "address"
        }
      ],
      "name": "canImplementInterfaceForAddress",
      "outputs": [
        {
          "internalType": "bytes32",
          "name": "",
          "type": "bytes32"
        }
      ],
      "stateMutability": "view",
      "type": "function"
    }
  ],
  "bytecode": "0x608060405234801561001057600080fd5b50610113806100206000396000f3fe6080604052348015600f57600080fd5b506004361060285760003560e01c8063249cb3fa14602d575b600080fd5b607660048036036040811015604157600080fd5b8101908080359060200190929190803573ffffffffffffffffffffffffffffffffffffffff169060200190929190505050608c565b6040518082815260200191505060405180910390f35b600060405160200180807f455243313832305f4143434550545f4d4147494300000000000000000000000081525060140190506040516020818303038152906040528051906020012090509291505056fea26469706673582212200c61c275c540ccd29f25771aaf5e0255871f4eb813c2e3cc9d0965dfaa806eee64736f6c63430006090033",
  "immutableReferences": {},
  "source": "pragma solidity ^0.6.9;\n\nimport \"./ERC1820ImplementerInterface.sol\";\n\ncontract SampleERC1820Implementer is ERC1820ImplementerInterface {\n\n    function canImplementInterfaceForAddress(bytes32 interfaceHash, address addr) override external view returns(bytes32) {\n        return ERC1820_ACCEPT_MAGIC;\n    }\n}\n",
  "sourcePath": "/Users/kt/code/provide.network/baseline/core/contracts/contracts/SampleERC1820Implementer.sol",
  "compiler": {
    "name": "solc",
    "version": "0.6.9+commit.3e3065ac.Emscripten.clang"
  },
  "schemaVersion": "3.1.0",
  "updatedAt": "2020-07-20T20:25:33.882Z",
  "devdoc": {
    "methods": {}
  },
  "userdoc": {
    "methods": {}
  }
}