{
  "contractName": "OrgRegistry",
  "abi": [
    {
      "inputs": [
        {
          "internalType": "address",
          "name": "_erc1820",
          "type": "address"
        }
      ],
      "stateMutability": "nonpayable",
      "type": "constructor"
    },
    {
      "anonymous": false,
      "inputs": [
        {
          "indexed": true,
          "internalType": "address",
          "name": "previousOwner",
          "type": "address"
        },
        {
          "indexed": true,
          "internalType": "address",
          "name": "newOwner",
          "type": "address"
        }
      ],
      "name": "OwnershipTransferred",
      "type": "event"
    },
    {
      "anonymous": false,
      "inputs": [
        {
          "indexed": false,
          "internalType": "bytes32",
          "name": "_name",
          "type": "bytes32"
        },
        {
          "indexed": false,
          "internalType": "address",
          "name": "_address",
          "type": "address"
        },
        {
          "indexed": false,
          "internalType": "bytes",
          "name": "_messagingEndpoint",
          "type": "bytes"
        },
        {
          "indexed": false,
          "internalType": "bytes",
          "name": "_whisperKey",
          "type": "bytes"
        },
        {
          "indexed": false,
          "internalType": "bytes",
          "name": "_zkpPublicKey",
          "type": "bytes"
        },
        {
          "indexed": false,
          "internalType": "bytes",
          "name": "_metadata",
          "type": "bytes"
        }
      ],
      "name": "RegisterOrg",
      "type": "event"
    },
    {
      "inputs": [],
      "name": "getManager",
      "outputs": [
        {
          "internalType": "address",
          "name": "",
          "type": "address"
        }
      ],
      "stateMutability": "view",
      "type": "function"
    },
    {
      "inputs": [
        {
          "internalType": "address",
          "name": "addr",
          "type": "address"
        },
        {
          "internalType": "string",
          "name": "_interfaceLabel",
          "type": "string"
        }
      ],
      "name": "interfaceAddr",
      "outputs": [
        {
          "internalType": "address",
          "name": "",
          "type": "address"
        }
      ],
      "stateMutability": "view",
      "type": "function"
    },
    {
      "inputs": [
        {
          "internalType": "uint256",
          "name": "",
          "type": "uint256"
        }
      ],
      "name": "orgs",
      "outputs": [
        {
          "internalType": "address",
          "name": "orgAddress",
          "type": "address"
        },
        {
          "internalType": "bytes32",
          "name": "name",
          "type": "bytes32"
        },
        {
          "internalType": "bytes",
          "name": "messagingEndpoint",
          "type": "bytes"
        },
        {
          "internalType": "bytes",
          "name": "whisperKey",
          "type": "bytes"
        },
        {
          "internalType": "bytes",
          "name": "zkpPublicKey",
          "type": "bytes"
        },
        {
          "internalType": "bytes",
          "name": "metadata",
          "type": "bytes"
        }
      ],
      "stateMutability": "view",
      "type": "function"
    },
    {
      "inputs": [],
      "name": "owner",
      "outputs": [
        {
          "internalType": "address",
          "name": "",
          "type": "address"
        }
      ],
      "stateMutability": "view",
      "type": "function"
    },
    {
      "inputs": [],
      "name": "renounceOwnership",
      "outputs": [],
      "stateMutability": "nonpayable",
      "type": "function"
    },
    {
      "inputs": [
        {
          "internalType": "bytes4",
          "name": "interfaceId",
          "type": "bytes4"
        }
      ],
      "name": "supportsInterface",
      "outputs": [
        {
          "internalType": "bool",
          "name": "",
          "type": "bool"
        }
      ],
      "stateMutability": "view",
      "type": "function"
    },
    {
      "inputs": [
        {
          "internalType": "address",
          "name": "newOwner",
          "type": "address"
        }
      ],
      "name": "transferOwnership",
      "outputs": [],
      "stateMutability": "nonpayable",
      "type": "function"
    },
    {
      "inputs": [],
      "name": "setInterfaces",
      "outputs": [
        {
          "internalType": "bool",
          "name": "",
          "type": "bool"
        }
      ],
      "stateMutability": "nonpayable",
      "type": "function"
    },
    {
      "inputs": [],
      "name": "getInterfaces",
      "outputs": [
        {
          "internalType": "bytes4",
          "name": "",
          "type": "bytes4"
        }
      ],
      "stateMutability": "pure",
      "type": "function"
    },
    {
      "inputs": [
        {
          "internalType": "bytes32",
          "name": "interfaceHash",
          "type": "bytes32"
        },
        {
          "internalType": "address",
          "name": "addr",
          "type": "address"
        }
      ],
      "name": "canImplementInterfaceForAddress",
      "outputs": [
        {
          "internalType": "bytes32",
          "name": "",
          "type": "bytes32"
        }
      ],
      "stateMutability": "view",
      "type": "function"
    },
    {
      "inputs": [
        {
          "internalType": "address",
          "name": "_newManager",
          "type": "address"
        }
      ],
      "name": "assignManager",
      "outputs": [],
      "stateMutability": "nonpayable",
      "type": "function"
    },
    {
      "inputs": [
        {
          "internalType": "address",
          "name": "_address",
          "type": "address"
        },
        {
          "internalType": "bytes32",
          "name": "_name",
          "type": "bytes32"
        },
        {
          "internalType": "bytes",
          "name": "_messagingEndpoint",
          "type": "bytes"
        },
        {
          "internalType": "bytes",
          "name": "_whisperKey",
          "type": "bytes"
        },
        {
          "internalType": "bytes",
          "name": "_zkpPublicKey",
          "type": "bytes"
        },
        {
          "internalType": "bytes",
          "name": "_metadata",
          "type": "bytes"
        }
      ],
      "name": "registerOrg",
      "outputs": [
        {
          "internalType": "bool",
          "name": "",
          "type": "bool"
        }
      ],
      "stateMutability": "nonpayable",
      "type": "function"
    },
    {
      "inputs": [
        {
          "internalType": "bytes32",
          "name": "_groupName",
          "type": "bytes32"
        },
        {
          "internalType": "address",
          "name": "_tokenAddress",
          "type": "address"
        },
        {
          "internalType": "address",
          "name": "_shieldAddress",
          "type": "address"
        },
        {
          "internalType": "address",
          "name": "_verifierAddress",
          "type": "address"
        }
      ],
      "name": "registerInterfaces",
      "outputs": [
        {
          "internalType": "bool",
          "name": "",
          "type": "bool"
        }
      ],
      "stateMutability": "nonpayable",
      "type": "function"
    },
    {
      "inputs": [],
      "name": "getOrgCount",
      "outputs": [
        {
          "internalType": "uint256",
          "name": "",
          "type": "uint256"
        }
      ],
      "stateMutability": "view",
      "type": "function"
    },
    {
      "inputs": [
        {
          "internalType": "address",
          "name": "_address",
          "type": "address"
        }
      ],
      "name": "getOrg",
      "outputs": [
        {
          "internalType": "address",
          "name": "",
          "type": "address"
        },
        {
          "internalType": "bytes32",
          "name": "",
          "type": "bytes32"
        },
        {
          "internalType": "bytes",
          "name": "",
          "type": "bytes"
        },
        {
          "internalType": "bytes",
          "name": "",
          "type": "bytes"
        },
        {
          "internalType": "bytes",
          "name": "",
          "type": "bytes"
        },
        {
          "internalType": "bytes",
          "name": "",
          "type": "bytes"
        }
      ],
      "stateMutability": "view",
      "type": "function"
    },
    {
      "inputs": [],
      "name": "getInterfaceAddresses",
      "outputs": [
        {
          "internalType": "bytes32[]",
          "name": "",
          "type": "bytes32[]"
        },
        {
          "internalType": "address[]",
          "name": "",
          "type": "address[]"
        },
        {
          "internalType": "address[]",
          "name": "",
          "type": "address[]"
        },
        {
          "internalType": "address[]",
          "name": "",
          "type": "address[]"
        }
      ],
      "stateMutability": "view",
      "type": "function"
    }
  ],
  "bytecode": "0x60806040523480156200001157600080fd5b5060405162002f3938038062002f3983398181016040528101906200003791906200044d565b8060006200004a620001b260201b60201c565b9050806000806101000a81548173ffffffffffffffffffffffffffffffffffffffff021916908373ffffffffffffffffffffffffffffffffffffffff1602179055508073ffffffffffffffffffffffffffffffffffffffff16600073ffffffffffffffffffffffffffffffffffffffff167f8be0079c531659141344cd1fd0a4f28419497f9722a3daafe3b4186f6b6457e060405160405180910390a350620001006301ffc9a760e01b620001ba60201b60201c565b620001106200029260201b60201c565b5080600260006101000a81548173ffffffffffffffffffffffffffffffffffffffff021916908373ffffffffffffffffffffffffffffffffffffffff16021790555050620001636200029260201b60201c565b50620001ab6040518060400160405280600c81526020017f494f726752656769737472790000000000000000000000000000000000000000815250306200036f60201b60201c565b50620006a5565b600033905090565b63ffffffff60e01b817bffffffffffffffffffffffffffffffffffffffffffffffffffffffff1916141562000226576040517f08c379a00000000000000000000000000000000000000000000000000000000081526004016200021d90620005ac565b60405180910390fd5b6001806000837bffffffffffffffffffffffffffffffffffffffffffffffffffffffff19167bffffffffffffffffffffffffffffffffffffffffffffffffffffffff1916815260200190815260200160002060006101000a81548160ff02191690831515021790555050565b6000620002a4620001b260201b60201c565b73ffffffffffffffffffffffffffffffffffffffff166000809054906101000a900473ffffffffffffffffffffffffffffffffffffffff1673ffffffffffffffffffffffffffffffffffffffff161462000335576040517f08c379a00000000000000000000000000000000000000000000000000000000081526004016200032c90620005ce565b60405180910390fd5b6200036863df68b63360e01b6323d2625360e01b637084a4a960e01b635a1c2eb360e01b181818620001ba60201b60201c565b6001905090565b60008260405160200162000384919062000556565b604051602081830303815290604052805190602001209050600260009054906101000a900473ffffffffffffffffffffffffffffffffffffffff1673ffffffffffffffffffffffffffffffffffffffff166329965a1d3083856040518463ffffffff1660e01b8152600401620003fd939291906200056f565b600060405180830381600087803b1580156200041857600080fd5b505af11580156200042d573d6000803e3d6000fd5b50505050505050565b60008151905062000447816200068b565b92915050565b6000602082840312156200046057600080fd5b6000620004708482850162000436565b91505092915050565b620004848162000617565b82525050565b62000495816200062b565b82525050565b6000620004a882620005f0565b620004b481856200060c565b9350620004c681856020860162000655565b80840191505092915050565b6000620004e1601c83620005fb565b91507f4552433136353a20696e76616c696420696e74657266616365206964000000006000830152602082019050919050565b600062000523602083620005fb565b91507f4f776e61626c653a2063616c6c6572206973206e6f7420746865206f776e65726000830152602082019050919050565b60006200056482846200049b565b915081905092915050565b600060608201905062000586600083018662000479565b6200059560208301856200048a565b620005a4604083018462000479565b949350505050565b60006020820190508181036000830152620005c781620004d2565b9050919050565b60006020820190508181036000830152620005e98162000514565b9050919050565b600081519050919050565b600082825260208201905092915050565b600081905092915050565b6000620006248262000635565b9050919050565b6000819050919050565b600073ffffffffffffffffffffffffffffffffffffffff82169050919050565b60005b838110156200067557808201518184015260208101905062000658565b8381111562000685576000848401525b50505050565b620006968162000617565b8114620006a257600080fd5b50565b61288480620006b56000396000f3fe608060405234801561001057600080fd5b50600436106101005760003560e01c80637084a4a911610097578063df68b63311610066578063df68b633146102df578063ebac15f914610300578063f2fde38b1461031e578063fca85eb31461033a57610100565b80637084a4a914610269578063715018a6146102995780638da5cb5b146102a3578063d5009584146102c157610100565b80632d2dcc48116100d35780632d2dcc48146101b8578063449a09a4146101d45780634f5c2e6c146102045780635a1c2eb31461023957610100565b806301ffc9a7146101055780631f1f86521461013557806323d262531461016a578063249cb3fa14610188575b600080fd5b61011f600480360381019061011a9190612055565b610358565b60405161012c9190612526565b60405180910390f35b61014f600480360381019061014a9190611e10565b6103c0565b60405161016196959493929190612448565b60405180910390f35b6101726107fc565b60405161017f919061265c565b60405180910390f35b6101a2600480360381019061019d9190611fb6565b610809565b6040516101af9190612541565b60405180910390f35b6101d260048036038101906101cd9190611e10565b610838565b005b6101ee60048036038101906101e99190611f5e565b6108da565b6040516101fb91906123db565b60405180910390f35b61021e6004803603810190610219919061207e565b6109bf565b60405161023096959493929190612448565b60405180910390f35b610253600480360381019061024e9190611e62565b610c88565b6040516102609190612526565b60405180910390f35b610283600480360381019061027e9190611ff2565b6110d4565b6040516102909190612526565b60405180910390f35b6102a16112e4565b005b6102ab611439565b6040516102b891906123db565b60405180910390f35b6102c9611462565b6040516102d691906123db565b60405180910390f35b6102e7611514565b6040516102f794939291906124c5565b60405180910390f35b6103086117f8565b60405161031591906125e1565b60405180910390f35b61033860048036038101906103339190611e10565b611822565b005b6103426119e6565b60405161034f9190612526565b60405180910390f35b600060016000837bffffffffffffffffffffffffffffffffffffffffffffffffffffffff19167bffffffffffffffffffffffffffffffffffffffffffffffffffffffff1916815260200190815260200160002060009054906101000a900460ff169050919050565b600080606080606080600360008873ffffffffffffffffffffffffffffffffffffffff1673ffffffffffffffffffffffffffffffffffffffff16815260200190815260200160002060000160009054906101000a900473ffffffffffffffffffffffffffffffffffffffff16600360008973ffffffffffffffffffffffffffffffffffffffff1673ffffffffffffffffffffffffffffffffffffffff16815260200190815260200160002060010154600360008a73ffffffffffffffffffffffffffffffffffffffff1673ffffffffffffffffffffffffffffffffffffffff168152602001908152602001600020600201600360008b73ffffffffffffffffffffffffffffffffffffffff1673ffffffffffffffffffffffffffffffffffffffff168152602001908152602001600020600301600360008c73ffffffffffffffffffffffffffffffffffffffff1673ffffffffffffffffffffffffffffffffffffffff168152602001908152602001600020600401600360008d73ffffffffffffffffffffffffffffffffffffffff1673ffffffffffffffffffffffffffffffffffffffff168152602001908152602001600020600501838054600181600116156101000203166002900480601f01602080910402602001604051908101604052809291908181526020018280546001816001161561010002031660029004801561060c5780601f106105e15761010080835404028352916020019161060c565b820191906000526020600020905b8154815290600101906020018083116105ef57829003601f168201915b50505050509350828054600181600116156101000203166002900480601f0160208091040260200160405190810160405280929190818152602001828054600181600116156101000203166002900480156106a85780601f1061067d576101008083540402835291602001916106a8565b820191906000526020600020905b81548152906001019060200180831161068b57829003601f168201915b50505050509250818054600181600116156101000203166002900480601f0160208091040260200160405190810160405280929190818152602001828054600181600116156101000203166002900480156107445780601f1061071957610100808354040283529160200191610744565b820191906000526020600020905b81548152906001019060200180831161072757829003601f168201915b50505050509150808054600181600116156101000203166002900480601f0160208091040260200160405190810160405280929190818152602001828054600181600116156101000203166002900480156107e05780601f106107b5576101008083540402835291602001916107e0565b820191906000526020600020905b8154815290600101906020018083116107c357829003601f168201915b5050505050905095509550955095509550955091939550919395565b6000600680549050905090565b600060405160200161081a906123c6565b60405160208183030381529060405280519060200120905092915050565b610840611ab0565b73ffffffffffffffffffffffffffffffffffffffff166000809054906101000a900473ffffffffffffffffffffffffffffffffffffffff1673ffffffffffffffffffffffffffffffffffffffff16146108ce576040517f08c379a00000000000000000000000000000000000000000000000000000000081526004016108c59061263c565b60405180910390fd5b6108d781611ab8565b50565b60008083836040516020016108f09291906123ad565b604051602081830303815290604052805190602001209050600260009054906101000a900473ffffffffffffffffffffffffffffffffffffffff1673ffffffffffffffffffffffffffffffffffffffff1663aabbb8ca86836040518363ffffffff1660e01b815260040161096592919061241f565b60206040518083038186803b15801561097d57600080fd5b505afa158015610991573d6000803e3d6000fd5b505050506040513d601f19601f820116820180604052508101906109b59190611e39565b9150509392505050565b600681815481106109cc57fe5b90600052602060002090600602016000915090508060000160009054906101000a900473ffffffffffffffffffffffffffffffffffffffff1690806001015490806002018054600181600116156101000203166002900480601f016020809104026020016040519081016040528092919081815260200182805460018160011615610100020316600290048015610aa45780601f10610a7957610100808354040283529160200191610aa4565b820191906000526020600020905b815481529060010190602001808311610a8757829003601f168201915b505050505090806003018054600181600116156101000203166002900480601f016020809104026020016040519081016040528092919081815260200182805460018160011615610100020316600290048015610b425780601f10610b1757610100808354040283529160200191610b42565b820191906000526020600020905b815481529060010190602001808311610b2557829003601f168201915b505050505090806004018054600181600116156101000203166002900480601f016020809104026020016040519081016040528092919081815260200182805460018160011615610100020316600290048015610be05780601f10610bb557610100808354040283529160200191610be0565b820191906000526020600020905b815481529060010190602001808311610bc357829003601f168201915b505050505090806005018054600181600116156101000203166002900480601f016020809104026020016040519081016040528092919081815260200182805460018160011615610100020316600290048015610c7e5780601f10610c5357610100808354040283529160200191610c7e565b820191906000526020600020905b815481529060010190602001808311610c6157829003601f168201915b5050505050905086565b6000610c92611ab0565b73ffffffffffffffffffffffffffffffffffffffff166000809054906101000a900473ffffffffffffffffffffffffffffffffffffffff1673ffffffffffffffffffffffffffffffffffffffff1614610d20576040517f08c379a0000000000000000000000000000000000000000000000000000000008152600401610d179061263c565b60405180910390fd5b610d28611c1f565b6040518060c001604052808d73ffffffffffffffffffffffffffffffffffffffff1681526020018c81526020018b8b8080601f016020809104026020016040519081016040528093929190818152602001838380828437600081840152601f19601f82011690508083019250505050505050815260200189898080601f016020809104026020016040519081016040528093929190818152602001838380828437600081840152601f19601f82011690508083019250505050505050815260200187878080601f016020809104026020016040519081016040528093929190818152602001838380828437600081840152601f19601f82011690508083019250505050505050815260200185858080601f016020809104026020016040519081016040528093929190818152602001838380828437600081840152601f19601f82011690508083019250505050505050815250905080600360008e73ffffffffffffffffffffffffffffffffffffffff1673ffffffffffffffffffffffffffffffffffffffff16815260200190815260200160002060008201518160000160006101000a81548173ffffffffffffffffffffffffffffffffffffffff021916908373ffffffffffffffffffffffffffffffffffffffff160217905550602082015181600101556040820151816002019080519060200190610f2a929190611c6e565b506060820151816003019080519060200190610f47929190611c6e565b506080820151816004019080519060200190610f64929190611c6e565b5060a0820151816005019080519060200190610f81929190611c6e565b50905050600681908060018154018082558091505060019003906000526020600020906006020160009091909190915060008201518160000160006101000a81548173ffffffffffffffffffffffffffffffffffffffff021916908373ffffffffffffffffffffffffffffffffffffffff16021790555060208201518160010155604082015181600201908051906020019061101e929190611c6e565b50606082015181600301908051906020019061103b929190611c6e565b506080820151816004019080519060200190611058929190611c6e565b5060a0820151816005019080519060200190611075929190611c6e565b5050507f808b44a88c627226ac8203dfbf828e31a3acdd62bdf56099fd331749759b91928b8d8c8c8c8c8c8c8c8c6040516110b99a9998979695949392919061255c565b60405180910390a160019150509a9950505050505050505050565b60006110de611ab0565b73ffffffffffffffffffffffffffffffffffffffff166000809054906101000a900473ffffffffffffffffffffffffffffffffffffffff1673ffffffffffffffffffffffffffffffffffffffff161461116c576040517f08c379a00000000000000000000000000000000000000000000000000000000081526004016111639061263c565b60405180910390fd5b60405180608001604052808681526020018573ffffffffffffffffffffffffffffffffffffffff1681526020018473ffffffffffffffffffffffffffffffffffffffff1681526020018373ffffffffffffffffffffffffffffffffffffffff168152506004600060055481526020019081526020016000206000820151816000015560208201518160010160006101000a81548173ffffffffffffffffffffffffffffffffffffffff021916908373ffffffffffffffffffffffffffffffffffffffff16021790555060408201518160020160006101000a81548173ffffffffffffffffffffffffffffffffffffffff021916908373ffffffffffffffffffffffffffffffffffffffff16021790555060608201518160030160006101000a81548173ffffffffffffffffffffffffffffffffffffffff021916908373ffffffffffffffffffffffffffffffffffffffff16021790555090505060056000815480929190600101919050555060019050949350505050565b6112ec611ab0565b73ffffffffffffffffffffffffffffffffffffffff166000809054906101000a900473ffffffffffffffffffffffffffffffffffffffff1673ffffffffffffffffffffffffffffffffffffffff161461137a576040517f08c379a00000000000000000000000000000000000000000000000000000000081526004016113719061263c565b60405180910390fd5b600073ffffffffffffffffffffffffffffffffffffffff166000809054906101000a900473ffffffffffffffffffffffffffffffffffffffff1673ffffffffffffffffffffffffffffffffffffffff167f8be0079c531659141344cd1fd0a4f28419497f9722a3daafe3b4186f6b6457e060405160405180910390a360008060006101000a81548173ffffffffffffffffffffffffffffffffffffffff021916908373ffffffffffffffffffffffffffffffffffffffff160217905550565b60008060009054906101000a900473ffffffffffffffffffffffffffffffffffffffff16905090565b6000600260009054906101000a900473ffffffffffffffffffffffffffffffffffffffff1673ffffffffffffffffffffffffffffffffffffffff16633d584063306040518263ffffffff1660e01b81526004016114bf91906123db565b60206040518083038186803b1580156114d757600080fd5b505afa1580156114eb573d6000803e3d6000fd5b505050506040513d601f19601f8201168201806040525081019061150f9190611e39565b905090565b606080606080606060055467ffffffffffffffff8111801561153557600080fd5b506040519080825280602002602001820160405280156115645781602001602082028036833780820191505090505b509050606060055467ffffffffffffffff8111801561158257600080fd5b506040519080825280602002602001820160405280156115b15781602001602082028036833780820191505090505b509050606060055467ffffffffffffffff811180156115cf57600080fd5b506040519080825280602002602001820160405280156115fe5781602001602082028036833780820191505090505b509050606060055467ffffffffffffffff8111801561161c57600080fd5b5060405190808252806020026020018201604052801561164b5781602001602082028036833780820191505090505b50905060008090505b6005548110156117e1576000600460008381526020019081526020016000209050806000015486838151811061168657fe5b6020026020010181815250508060010160009054906101000a900473ffffffffffffffffffffffffffffffffffffffff168583815181106116c357fe5b602002602001019073ffffffffffffffffffffffffffffffffffffffff16908173ffffffffffffffffffffffffffffffffffffffff16815250508060020160009054906101000a900473ffffffffffffffffffffffffffffffffffffffff1684838151811061172e57fe5b602002602001019073ffffffffffffffffffffffffffffffffffffffff16908173ffffffffffffffffffffffffffffffffffffffff16815250508060030160009054906101000a900473ffffffffffffffffffffffffffffffffffffffff1683838151811061179957fe5b602002602001019073ffffffffffffffffffffffffffffffffffffffff16908173ffffffffffffffffffffffffffffffffffffffff1681525050508080600101915050611654565b508383838397509750975097505050505090919293565b600063df68b63360e01b6323d2625360e01b637084a4a960e01b635a1c2eb360e01b181818905090565b61182a611ab0565b73ffffffffffffffffffffffffffffffffffffffff166000809054906101000a900473ffffffffffffffffffffffffffffffffffffffff1673ffffffffffffffffffffffffffffffffffffffff16146118b8576040517f08c379a00000000000000000000000000000000000000000000000000000000081526004016118af9061263c565b60405180910390fd5b600073ffffffffffffffffffffffffffffffffffffffff168173ffffffffffffffffffffffffffffffffffffffff161415611928576040517f08c379a000000000000000000000000000000000000000000000000000000000815260040161191f906125fc565b60405180910390fd5b8073ffffffffffffffffffffffffffffffffffffffff166000809054906101000a900473ffffffffffffffffffffffffffffffffffffffff1673ffffffffffffffffffffffffffffffffffffffff167f8be0079c531659141344cd1fd0a4f28419497f9722a3daafe3b4186f6b6457e060405160405180910390a3806000806101000a81548173ffffffffffffffffffffffffffffffffffffffff021916908373ffffffffffffffffffffffffffffffffffffffff16021790555050565b60006119f0611ab0565b73ffffffffffffffffffffffffffffffffffffffff166000809054906101000a900473ffffffffffffffffffffffffffffffffffffffff1673ffffffffffffffffffffffffffffffffffffffff1614611a7e576040517f08c379a0000000000000000000000000000000000000000000000000000000008152600401611a759061263c565b60405180910390fd5b611aa963df68b63360e01b6323d2625360e01b637084a4a960e01b635a1c2eb360e01b181818611b4a565b6001905090565b600033905090565b600260009054906101000a900473ffffffffffffffffffffffffffffffffffffffff1673ffffffffffffffffffffffffffffffffffffffff16635df8122f30836040518363ffffffff1660e01b8152600401611b159291906123f6565b600060405180830381600087803b158015611b2f57600080fd5b505af1158015611b43573d6000803e3d6000fd5b5050505050565b63ffffffff60e01b817bffffffffffffffffffffffffffffffffffffffffffffffffffffffff19161415611bb3576040517f08c379a0000000000000000000000000000000000000000000000000000000008152600401611baa9061261c565b60405180910390fd5b6001806000837bffffffffffffffffffffffffffffffffffffffffffffffffffffffff19167bffffffffffffffffffffffffffffffffffffffffffffffffffffffff1916815260200190815260200160002060006101000a81548160ff02191690831515021790555050565b6040518060c00160405280600073ffffffffffffffffffffffffffffffffffffffff16815260200160008019168152602001606081526020016060815260200160608152602001606081525090565b828054600181600116156101000203166002900490600052602060002090601f016020900481019282601f10611caf57805160ff1916838001178555611cdd565b82800160010185558215611cdd579182015b82811115611cdc578251825591602001919060010190611cc1565b5b509050611cea9190611cee565b5090565b611d1091905b80821115611d0c576000816000905550600101611cf4565b5090565b90565b600081359050611d22816127f2565b92915050565b600081519050611d37816127f2565b92915050565b600081359050611d4c81612809565b92915050565b600081359050611d6181612820565b92915050565b60008083601f840112611d7957600080fd5b8235905067ffffffffffffffff811115611d9257600080fd5b602083019150836001820283011115611daa57600080fd5b9250929050565b60008083601f840112611dc357600080fd5b8235905067ffffffffffffffff811115611ddc57600080fd5b602083019150836001820283011115611df457600080fd5b9250929050565b600081359050611e0a81612837565b92915050565b600060208284031215611e2257600080fd5b6000611e3084828501611d13565b91505092915050565b600060208284031215611e4b57600080fd5b6000611e5984828501611d28565b91505092915050565b60008060008060008060008060008060c08b8d031215611e8157600080fd5b6000611e8f8d828e01611d13565b9a50506020611ea08d828e01611d3d565b99505060408b013567ffffffffffffffff811115611ebd57600080fd5b611ec98d828e01611d67565b985098505060608b013567ffffffffffffffff811115611ee857600080fd5b611ef48d828e01611d67565b965096505060808b013567ffffffffffffffff811115611f1357600080fd5b611f1f8d828e01611d67565b945094505060a08b013567ffffffffffffffff811115611f3e57600080fd5b611f4a8d828e01611d67565b92509250509295989b9194979a5092959850565b600080600060408486031215611f7357600080fd5b6000611f8186828701611d13565b935050602084013567ffffffffffffffff811115611f9e57600080fd5b611faa86828701611db1565b92509250509250925092565b60008060408385031215611fc957600080fd5b6000611fd785828601611d3d565b9250506020611fe885828601611d13565b9150509250929050565b6000806000806080858703121561200857600080fd5b600061201687828801611d3d565b945050602061202787828801611d13565b935050604061203887828801611d13565b925050606061204987828801611d13565b91505092959194509250565b60006020828403121561206757600080fd5b600061207584828501611d52565b91505092915050565b60006020828403121561209057600080fd5b600061209e84828501611dfb565b91505092915050565b60006120b383836120d7565b60208301905092915050565b60006120cb83836121c0565b60208301905092915050565b6120e081612721565b82525050565b6120ef81612721565b82525050565b600061210082612697565b61210a81856126d2565b935061211583612677565b8060005b8381101561214657815161212d88826120a7565b9750612138836126b8565b925050600181019050612119565b5085935050505092915050565b600061215e826126a2565b61216881856126e3565b935061217383612687565b8060005b838110156121a457815161218b88826120bf565b9750612196836126c5565b925050600181019050612177565b5085935050505092915050565b6121ba81612733565b82525050565b6121c98161273f565b82525050565b6121d88161273f565b82525050565b6121e781612749565b82525050565b60006121f983856126f4565b935061220683858461279f565b61220f836127e1565b840190509392505050565b6000612225826126ad565b61222f81856126f4565b935061223f8185602086016127ae565b612248816127e1565b840191505092915050565b600061225f8385612716565b935061226c83858461279f565b82840190509392505050565b6000612285602683612705565b91507f4f776e61626c653a206e6577206f776e657220697320746865207a65726f206160008301527f64647265737300000000000000000000000000000000000000000000000000006020830152604082019050919050565b60006122eb601c83612705565b91507f4552433136353a20696e76616c696420696e74657266616365206964000000006000830152602082019050919050565b600061232b602083612705565b91507f4f776e61626c653a2063616c6c6572206973206e6f7420746865206f776e65726000830152602082019050919050565b600061236b601483612716565b91507f455243313832305f4143434550545f4d414749430000000000000000000000006000830152601482019050919050565b6123a781612795565b82525050565b60006123ba828486612253565b91508190509392505050565b60006123d18261235e565b9150819050919050565b60006020820190506123f060008301846120e6565b92915050565b600060408201905061240b60008301856120e6565b61241860208301846120e6565b9392505050565b600060408201905061243460008301856120e6565b61244160208301846121cf565b9392505050565b600060c08201905061245d60008301896120e6565b61246a60208301886121cf565b818103604083015261247c818761221a565b90508181036060830152612490818661221a565b905081810360808301526124a4818561221a565b905081810360a08301526124b8818461221a565b9050979650505050505050565b600060808201905081810360008301526124df8187612153565b905081810360208301526124f381866120f5565b9050818103604083015261250781856120f5565b9050818103606083015261251b81846120f5565b905095945050505050565b600060208201905061253b60008301846121b1565b92915050565b600060208201905061255660008301846121cf565b92915050565b600060c082019050612571600083018d6121cf565b61257e602083018c6120e6565b8181036040830152612591818a8c6121ed565b905081810360608301526125a681888a6121ed565b905081810360808301526125bb8186886121ed565b905081810360a08301526125d08184866121ed565b90509b9a5050505050505050505050565b60006020820190506125f660008301846121de565b92915050565b6000602082019050818103600083015261261581612278565b9050919050565b60006020820190508181036000830152612635816122de565b9050919050565b600060208201905081810360008301526126558161231e565b9050919050565b6000602082019050612671600083018461239e565b92915050565b6000819050602082019050919050565b6000819050602082019050919050565b600081519050919050565b600081519050919050565b600081519050919050565b6000602082019050919050565b6000602082019050919050565b600082825260208201905092915050565b600082825260208201905092915050565b600082825260208201905092915050565b600082825260208201905092915050565b600081905092915050565b600061272c82612775565b9050919050565b60008115159050919050565b6000819050919050565b60007fffffffff0000000000000000000000000000000000000000000000000000000082169050919050565b600073ffffffffffffffffffffffffffffffffffffffff82169050919050565b6000819050919050565b82818337600083830152505050565b60005b838110156127cc5780820151818401526020810190506127b1565b838111156127db576000848401525b50505050565b6000601f19601f8301169050919050565b6127fb81612721565b811461280657600080fd5b50565b6128128161273f565b811461281d57600080fd5b50565b61282981612749565b811461283457600080fd5b50565b61284081612795565b811461284b57600080fd5b5056fea26469706673582212206b6fdfb068e275f3d862cf678731f64f83c1f767bd32a8a33495cc05f17cc9c864736f6c63430006090033",
  "immutableReferences": {},
  "source": "pragma solidity ^0.6.9;\npragma experimental ABIEncoderV2;\n\nimport \"./IOrgRegistry.sol\";\nimport \"./Registrar.sol\";\nimport \"./ERC165Compatible.sol\";\nimport \"@openzeppelin/contracts/access/Ownable.sol\";\n\n/// @dev Contract for maintaining organization registry\n/// Contract inherits from Ownable and ERC165Compatible\n/// Ownable contains ownership criteria of the organization registry\n/// ERC165Compatible contains interface compatibility checks\ncontract OrgRegistry is Ownable, ERC165Compatible, Registrar, IOrgRegistry {\n\n    struct Org {\n        address orgAddress;\n        bytes32 name;\n        bytes messagingEndpoint;\n        bytes whisperKey;\n        bytes zkpPublicKey;\n        bytes metadata;\n    }\n\n    struct OrgInterfaces {\n        bytes32 groupName;\n        address tokenAddress;\n        address shieldAddress;\n        address verifierAddress;\n    }\n\n    mapping (address => Org) orgMap;\n    mapping (uint => OrgInterfaces) orgInterfaceMap;\n    uint orgInterfaceCount;\n\n    Org[] public orgs;\n    mapping(address => address) managerMap;\n\n    event RegisterOrg(\n        bytes32 _name,\n        address _address,\n        bytes _messagingEndpoint,\n        bytes _whisperKey,\n        bytes _zkpPublicKey,\n        bytes _metadata\n    );\n\n    /// @dev constructor function that takes the address of a pre-deployed ERC1820\n    /// registry. Ideally, this contract is a publicly known address:\n    /// 0x1820a4B7618BdE71Dce8cdc73aAB6C95905faD24. Inherently, the constructor\n    /// sets the interfaces and registers the current contract with the global registry\n    constructor(address _erc1820) public ERC165Compatible() Registrar(_erc1820) {\n        setInterfaces();\n        setInterfaceImplementation(\"IOrgRegistry\", address(this));\n    }\n\n    /// @notice This is an implementation of setting interfaces for the organization\n    /// registry contract\n    /// @dev the character '^' corresponds to bit wise xor of individual interface id's\n    /// which are the parsed 4 bytes of the function signature of each of the functions\n    /// in the org registry contract\n    function setInterfaces() override public onlyOwner returns (bool) {\n        /// 0x54ebc817 is equivalent to the bytes4 of the function selectors in IOrgRegistry\n        _registerInterface(this.registerOrg.selector ^\n                            this.registerInterfaces.selector ^\n                            this.getOrgCount.selector ^\n                            this.getInterfaceAddresses.selector);\n        return true;\n    }\n\n    /// @notice This function is a helper function to be able to get the\n    /// set interface id by the setInterfaces()\n    function getInterfaces() external pure returns (bytes4) {\n        return this.registerOrg.selector ^\n                this.registerInterfaces.selector ^\n                this.getOrgCount.selector ^\n                this.getInterfaceAddresses.selector;\n    }\n\n    /// @notice Indicates whether the contract implements the interface 'interfaceHash' for the address 'addr' or not.\n    /// @dev Below implementation is necessary to be able to have the ability to register with ERC1820\n    /// @param interfaceHash keccak256 hash of the name of the interface\n    /// @param addr Address for which the contract will implement the interface\n    /// @return ERC1820_ACCEPT_MAGIC only if the contract implements 'interfaceHash' for the address 'addr'.\n    function canImplementInterfaceForAddress(bytes32 interfaceHash, address addr) external view returns(bytes32) {\n        return ERC1820_ACCEPT_MAGIC;\n    }\n\n    /// @dev Since this is an inherited method from Registrar, it allows for a new manager to be set\n    /// for this contract instance\n    function assignManager(address _newManager) onlyOwner external {\n        assignManagement(_newManager);\n    }\n\n    /// @notice Function to register an organization\n    /// @param _address ethereum address of the registered organization\n    /// @param _name name of the registered organization\n    /// @param _messagingEndpoint public messaging endpoint\n    /// @param _whisperKey public key required for message communication\n    /// @param _zkpPublicKey public key required for commitments & to verify EdDSA signatures with\n    /// @dev Function to register an organization\n    /// @return `true` upon successful registration of the organization\n    function registerOrg(\n        address _address,\n        bytes32 _name,\n        bytes calldata _messagingEndpoint,\n        bytes calldata _whisperKey,\n        bytes calldata _zkpPublicKey,\n        bytes calldata _metadata\n    ) onlyOwner override external returns (bool) {\n        Org memory org = Org(_address, _name, _messagingEndpoint, _whisperKey, _zkpPublicKey, _metadata);\n        orgMap[_address] = org;\n        orgs.push(org);\n\n        emit RegisterOrg(\n            _name,\n            _address,\n            _messagingEndpoint,\n            _whisperKey,\n            _zkpPublicKey,\n            _metadata\n        );\n\n        return true;\n    }\n\n    /// @notice Function to register the names of the interfaces associated with the OrgRegistry\n    /// @param _groupName name of the working group registered by an organization\n    /// @param _tokenAddress name of the registered token interface\n    /// @param _shieldAddress name of the registered shield registry interface\n    /// @param _verifierAddress name of the verifier registry interface\n    /// @dev Function to register an organization's interfaces for easy lookup\n    /// @return `true` upon successful registration of the organization's interfaces\n    function registerInterfaces(\n        bytes32 _groupName,\n        address _tokenAddress,\n        address _shieldAddress,\n        address _verifierAddress\n    ) external onlyOwner returns (bool) {\n        orgInterfaceMap[orgInterfaceCount] = OrgInterfaces(\n            _groupName,\n            _tokenAddress,\n            _shieldAddress,\n            _verifierAddress\n        );\n        orgInterfaceCount++;\n        return true;\n    }\n\n    /// @dev Function to get the count of number of organizations to help with extraction\n    /// @return length of the array containing organization addresses\n    function getOrgCount() override external view returns (uint) {\n        return orgs.length;\n    }\n\n    /// @notice Function to get a single organization's details\n    function getOrg(address _address) override external view returns (\n        address,\n        bytes32,\n        bytes memory,\n        bytes memory,\n        bytes memory,\n        bytes memory\n    ) {\n        return (\n            orgMap[_address].orgAddress,\n            orgMap[_address].name,\n            orgMap[_address].messagingEndpoint,\n            orgMap[_address].whisperKey,\n            orgMap[_address].zkpPublicKey,\n            orgMap[_address].metadata\n        );\n    }\n\n    /// @notice Function to get a single organization's interface details\n    function getInterfaceAddresses() external view returns (\n        bytes32[] memory,\n        address[] memory,\n        address[] memory,\n        address[] memory\n    ) {\n        bytes32[] memory gName = new bytes32[](orgInterfaceCount);\n        address[] memory tfAddress = new address[](orgInterfaceCount);\n        address[] memory sAddress = new address[](orgInterfaceCount);\n        address[] memory vrAddress = new address[](orgInterfaceCount);\n\n        for (uint i = 0; i < orgInterfaceCount; i++) {\n            OrgInterfaces storage orgInterfaces = orgInterfaceMap[i];\n            gName[i] = orgInterfaces.groupName;\n            tfAddress[i] = orgInterfaces.tokenAddress;\n            sAddress[i] = orgInterfaces.shieldAddress;\n            vrAddress[i] = orgInterfaces.verifierAddress;\n        }\n        return (\n            gName,\n            tfAddress,\n            sAddress,\n            vrAddress\n        );\n    }\n}\n",
  "sourcePath": "/Users/kt/code/provide.network/baseline/core/contracts/contracts/OrgRegistry.sol",
  "compiler": {
    "name": "solc",
    "version": "0.6.9+commit.3e3065ac.Emscripten.clang"
  },
  "schemaVersion": "3.1.0",
  "updatedAt": "2020-07-20T20:25:33.857Z",
  "devdoc": {
    "details": "Contract for maintaining organization registry Contract inherits from Ownable and ERC165Compatible Ownable contains ownership criteria of the organization registry ERC165Compatible contains interface compatibility checks",
    "methods": {
      "assignManager(address)": {
        "details": "Since this is an inherited method from Registrar, it allows for a new manager to be set for this contract instance"
      },
      "canImplementInterfaceForAddress(bytes32,address)": {
        "details": "Below implementation is necessary to be able to have the ability to register with ERC1820",
        "params": {
          "addr": "Address for which the contract will implement the interface",
          "interfaceHash": "keccak256 hash of the name of the interface"
        },
        "returns": {
          "_0": "ERC1820_ACCEPT_MAGIC only if the contract implements 'interfaceHash' for the address 'addr'."
        }
      },
      "constructor": {
        "details": "constructor function that takes the address of a pre-deployed ERC1820 registry. Ideally, this contract is a publicly known address: 0x1820a4B7618BdE71Dce8cdc73aAB6C95905faD24. Inherently, the constructor sets the interfaces and registers the current contract with the global registry"
      },
      "getManager()": {
        "details": "This allows you to get this contract manager address"
      },
      "getOrgCount()": {
        "details": "Function to get the count of number of organizations to help with extraction",
        "returns": {
          "_0": "length of the array containing organization addresses"
        }
      },
      "interfaceAddr(address,string)": {
        "details": "This enables getting the address of the implementer",
        "params": {
          "_interfaceLabel": "label for the interface or the contract that is registered",
          "addr": "the address for which the implementer is deployed"
        }
      },
      "owner()": {
        "details": "Returns the address of the current owner."
      },
      "registerInterfaces(bytes32,address,address,address)": {
        "details": "Function to register an organization's interfaces for easy lookup",
        "params": {
          "_groupName": "name of the working group registered by an organization",
          "_shieldAddress": "name of the registered shield registry interface",
          "_tokenAddress": "name of the registered token interface",
          "_verifierAddress": "name of the verifier registry interface"
        },
        "returns": {
          "_0": "`true` upon successful registration of the organization's interfaces"
        }
      },
      "registerOrg(address,bytes32,bytes,bytes,bytes,bytes)": {
        "details": "Function to register an organization",
        "params": {
          "_address": "ethereum address of the registered organization",
          "_messagingEndpoint": "public messaging endpoint",
          "_name": "name of the registered organization",
          "_whisperKey": "public key required for message communication",
          "_zkpPublicKey": "public key required for commitments & to verify EdDSA signatures with"
        },
        "returns": {
          "_0": "`true` upon successful registration of the organization"
        }
      },
      "renounceOwnership()": {
        "details": "Leaves the contract without owner. It will not be possible to call `onlyOwner` functions anymore. Can only be called by the current owner. NOTE: Renouncing ownership will leave the contract without an owner, thereby removing any functionality that is only available to the owner."
      },
      "setInterfaces()": {
        "details": "the character '^' corresponds to bit wise xor of individual interface id's which are the parsed 4 bytes of the function signature of each of the functions in the org registry contract"
      },
      "supportsInterface(bytes4)": {
        "details": "See {IERC165-supportsInterface}. Time complexity O(1), guaranteed to always use less than 30 000 gas."
      },
      "transferOwnership(address)": {
        "details": "Transfers ownership of the contract to a new account (`newOwner`). Can only be called by the current owner."
      }
    }
  },
  "userdoc": {
    "methods": {
      "canImplementInterfaceForAddress(bytes32,address)": {
        "notice": "Indicates whether the contract implements the interface 'interfaceHash' for the address 'addr' or not."
      },
      "getInterfaceAddresses()": {
        "notice": "Function to get a single organization's interface details"
      },
      "getInterfaces()": {
        "notice": "This function is a helper function to be able to get the set interface id by the setInterfaces()"
      },
      "getOrg(address)": {
        "notice": "Function to get a single organization's details"
      },
      "registerInterfaces(bytes32,address,address,address)": {
        "notice": "Function to register the names of the interfaces associated with the OrgRegistry"
      },
      "registerOrg(address,bytes32,bytes,bytes,bytes,bytes)": {
        "notice": "Function to register an organization"
      },
      "setInterfaces()": {
        "notice": "This is an implementation of setting interfaces for the organization registry contract"
      }
    }
  }
}