{
  "contractName": "Shield",
  "abi": [
    {
      "inputs": [
        {
          "internalType": "address",
          "name": "_verifier",
          "type": "address"
        },
        {
          "internalType": "uint256",
          "name": "_treeHeight",
          "type": "uint256"
        }
      ],
      "stateMutability": "nonpayable",
      "type": "constructor"
    },
    {
      "anonymous": false,
      "inputs": [
        {
          "indexed": false,
          "internalType": "uint256",
          "name": "leafIndex",
          "type": "uint256"
        },
        {
          "indexed": false,
          "internalType": "bytes32",
          "name": "leafValue",
          "type": "bytes32"
        },
        {
          "indexed": false,
          "internalType": "bytes32",
          "name": "root",
          "type": "bytes32"
        }
      ],
      "name": "NewLeaf",
      "type": "event"
    },
    {
      "anonymous": false,
      "inputs": [
        {
          "indexed": false,
          "internalType": "uint256",
          "name": "minLeafIndex",
          "type": "uint256"
        },
        {
          "indexed": false,
          "internalType": "bytes32[]",
          "name": "leafValues",
          "type": "bytes32[]"
        },
        {
          "indexed": false,
          "internalType": "bytes32",
          "name": "root",
          "type": "bytes32"
        }
      ],
      "name": "NewLeaves",
      "type": "event"
    },
    {
      "anonymous": false,
      "inputs": [
        {
          "indexed": false,
          "internalType": "bytes27",
          "name": "leftInput",
          "type": "bytes27"
        },
        {
          "indexed": false,
          "internalType": "bytes27",
          "name": "rightInput",
          "type": "bytes27"
        },
        {
          "indexed": false,
          "internalType": "bytes32",
          "name": "output",
          "type": "bytes32"
        },
        {
          "indexed": false,
          "internalType": "uint256",
          "name": "nodeIndex",
          "type": "uint256"
        }
      ],
      "name": "Output",
      "type": "event"
    },
    {
      "inputs": [
        {
          "internalType": "uint256",
          "name": "",
          "type": "uint256"
        }
      ],
      "name": "frontier",
      "outputs": [
        {
          "internalType": "bytes27",
          "name": "",
          "type": "bytes27"
        }
      ],
      "stateMutability": "view",
      "type": "function"
    },
    {
      "inputs": [],
      "name": "latestRoot",
      "outputs": [
        {
          "internalType": "bytes32",
          "name": "",
          "type": "bytes32"
        }
      ],
      "stateMutability": "view",
      "type": "function"
    },
    {
      "inputs": [],
      "name": "leafCount",
      "outputs": [
        {
          "internalType": "uint256",
          "name": "",
          "type": "uint256"
        }
      ],
      "stateMutability": "view",
      "type": "function"
    },
    {
      "inputs": [],
      "name": "treeHeight",
      "outputs": [
        {
          "internalType": "uint256",
          "name": "",
          "type": "uint256"
        }
      ],
      "stateMutability": "view",
      "type": "function"
    },
    {
      "inputs": [],
      "name": "treeWidth",
      "outputs": [
        {
          "internalType": "uint256",
          "name": "",
          "type": "uint256"
        }
      ],
      "stateMutability": "view",
      "type": "function"
    },
    {
      "inputs": [],
      "name": "zero",
      "outputs": [
        {
          "internalType": "bytes27",
          "name": "",
          "type": "bytes27"
        }
      ],
      "stateMutability": "view",
      "type": "function"
    },
    {
      "inputs": [],
      "name": "getVerifier",
      "outputs": [
        {
          "internalType": "address",
          "name": "",
          "type": "address"
        }
      ],
      "stateMutability": "view",
      "type": "function"
    },
    {
      "inputs": [
        {
          "internalType": "uint256[]",
          "name": "_proof",
          "type": "uint256[]"
        },
        {
          "internalType": "uint256[]",
          "name": "_publicInputs",
          "type": "uint256[]"
        },
        {
          "internalType": "bytes32",
          "name": "_newCommitment",
          "type": "bytes32"
        }
      ],
      "name": "verifyAndPush",
      "outputs": [
        {
          "internalType": "bool",
          "name": "",
          "type": "bool"
        }
      ],
      "stateMutability": "nonpayable",
      "type": "function"
    }
  ],
  "bytecode": "0x6080604052600060281b600460006101000a8154817affffffffffffffffffffffffffffffffffffffffffffffffffffff021916908360281c021790555034801561004957600080fd5b506040516109453803806109458339818101604052604081101561006c57600080fd5b810190808051906020019092919080519060200190929190505050808060008190555060005460020a6001819055505081602660006101000a81548173ffffffffffffffffffffffffffffffffffffffff021916908373ffffffffffffffffffffffffffffffffffffffff1602179055505050610857806100ee6000396000f3fe608060405234801561001057600080fd5b50600436106100885760003560e01c80636e0c3fee1161005b5780636e0c3fee1461020357806376c601b114610255578063bc1b392d14610273578063d7b0fef1146102a157610088565b806301e3e9151461008d57806330e69fc3146100ab57806346657fe9146100c95780636620e73b14610113575b600080fd5b6100956102bf565b6040518082815260200191505060405180910390f35b6100b36102c5565b6040518082815260200191505060405180910390f35b6100d16102cb565b604051808273ffffffffffffffffffffffffffffffffffffffff1673ffffffffffffffffffffffffffffffffffffffff16815260200191505060405180910390f35b6101e96004803603606081101561012957600080fd5b810190808035906020019064010000000081111561014657600080fd5b82018360208201111561015857600080fd5b8035906020019184602083028401116401000000008311171561017a57600080fd5b90919293919293908035906020019064010000000081111561019b57600080fd5b8201836020820111156101ad57600080fd5b803590602001918460208302840111640100000000831117156101cf57600080fd5b9091929391929390803590602001909291905050506102f5565b604051808215151515815260200191505060405180910390f35b61022f6004803603602081101561021957600080fd5b810190808035906020019092919050505061047e565b604051808264ffffffffff191664ffffffffff1916815260200191505060405180910390f35b61025d61049e565b6040518082815260200191505060405180910390f35b61027b6104a4565b604051808264ffffffffff191664ffffffffff1916815260200191505060405180910390f35b6102a96104b7565b6040518082815260200191505060405180910390f35b60005481565b60035481565b6000602660009054906101000a900473ffffffffffffffffffffffffffffffffffffffff16905090565b600080602660009054906101000a900473ffffffffffffffffffffffffffffffffffffffff1673ffffffffffffffffffffffffffffffffffffffff1663b864f5a9888888886040518563ffffffff1660e01b81526004018080602001806020018381038352878782818152602001925060200280828437600081840152601f19601f8201169050808301925050508381038252858582818152602001925060200280828437600081840152601f19601f8201169050808301925050509650505050505050602060405180830381600087803b1580156103d357600080fd5b505af11580156103e7573d6000803e3d6000fd5b505050506040513d60208110156103fd57600080fd5b8101908080519060200190929190505050905080610466576040517f08c379a00000000000000000000000000000000000000000000000000000000081526004018080602001828103825260368152602001806107c96036913960400191505060405180910390fd5b61046f836104bd565b50600191505095945050505050565b6005816021811061048b57fe5b016000915054906101000a900460281b81565b60015481565b600460009054906101000a900460281b81565b60025481565b60006003546001541161051b576040517f08c379a00000000000000000000000000000000000000000000000000000000081526004018080602001828103825260238152602001806107ff6023913960400191505060405180910390fd5b600061052860035461072f565b9050600060018054600354010390506000602885901b905060008061054b6107a6565b600080600090505b6000548110156106a857878114156105a757856005896021811061057357fe5b0160006101000a8154817affffffffffffffffffffffffffffffffffffffffffffffffffffff021916908360281c02179055505b6000600288816105b357fe5b06141561063457600581602181106105c757fe5b0160009054906101000a900460281b945085935060405185815284601b8201526020846036836002600019fa9250826000811461060357610605565bfe5b505060288360006001811061061657fe5b6020020151901b95506002600188038161062c57fe5b04965061069b565b859450600460009054906101000a900460281b935060405185815284601b8201526020846036836002600019fa9250826000811461067157610673565bfe5b505060288360006001811061068457fe5b6020020151901b95506002878161069757fe5b0496505b8080600101915050610553565b50816000600181106106b657fe5b60200201516002819055507f6a82ba2aa1d2c039c41e6e2b5a5a1090d09906f060d32af9c1ac0beff7af75c06003548a60025460405180848152602001838152602001828152602001935050505060405180910390a1600360008154809291906001019190505550600254975050505050505050919050565b600080905060016002838161074057fe5b0614156107a1576000600190506000600290506000600182901b90505b600084141561079d576000818360018801038161077657fe5b06141561078557829350610798565b809150600181901b905082806001019350505b61075d565b5050505b919050565b604051806020016040528060019060208202803683378082019150509050509056fe5468652070726f6f66206661696c656420766572696669636174696f6e20696e2074686520766572696669657220636f6e74726163745468657265206973206e6f207370616365206c65667420696e2074686520747265652ea2646970667358221220bd293ba1f2082f20ee16e7c6487e52d067121e19d892d3bf0cb86b3f0bf9320564736f6c63430006090033",
  "immutableReferences": {},
  "source": "// SPDX-License-Identifier: CC0\npragma solidity ^0.6.9;\n\nimport \"./lib/MerkleTreeSHA256.sol\";\nimport \"./IShield.sol\";\nimport \"./IVerifier.sol\";\n\ncontract Shield is IShield, MerkleTreeSHA256 {\n    // CONTRACT INSTANCES:\n    IVerifier private verifier; // the verification smart contract\n\n    // FUNCTIONS:\n    constructor(address _verifier, uint _treeHeight) public MerkleTreeSHA256(_treeHeight) {\n        verifier = IVerifier(_verifier);\n    }\n\n    // returns the verifier contract address that this shield contract uses for proof verification\n    function getVerifier() external override view returns (address) {\n        return address(verifier);\n    }\n\n    function verifyAndPush(\n        uint256[] calldata _proof,\n        uint256[] calldata _publicInputs,\n        bytes32 _newCommitment\n    ) external override returns (bool) {\n\n        // verify the proof\n        bool result = verifier.verify(_proof, _publicInputs);\n        require(result, \"The proof failed verification in the verifier contract\");\n\n        // update contract states\n        insertLeaf(_newCommitment); // recalculate the root of the merkleTree as it's now different\n        return true;\n    }\n\n}\n",
  "sourcePath": "/Users/samuelstokes/repos/baseline/examples/bri-2/node_modules/@baseline-protocol/contracts/contracts/privacy/Shield.sol",
  "compiler": {
    "name": "solc",
    "version": "0.6.9+commit.3e3065ac.Emscripten.clang"
  },
  "schemaVersion": "3.3.4",
  "updatedAt": "2021-02-15T15:39:49.402Z",
  "devdoc": {
    "methods": {}
  },
  "userdoc": {
    "methods": {
      "zero()": {
        "notice": "Whilst ordinarily, we'd work solely with bytes32, we need to truncate nodeValues up the tree.  Therefore, we need to declare certain variables with lower byte-lengths: LEAF_HASHLENGTH = 32 bytes; NODE_HASHLENGTH = 27 bytes; 5 byte difference * 8 bits per byte = 40 bit shift to truncate hashlengths. 27 bytes * 2 inputs to sha() = 54 byte input to sha(). 54 = 0x36. If in future you want to change the truncation values, search for '27', '40' and '0x36'."
      }
    }
  }
}