{
  "_format": "hh-sol-artifact-1",
  "contractName": "CcsmBpiStateAnchor",
  "sourceName": "src/bri/ccsm/contracts/CcsmBpiStateAnchor.sol",
  "abi": [
    {
      "inputs": [
        {
          "internalType": "address[]",
          "name": "admins",
          "type": "address[]"
        }
      ],
      "stateMutability": "nonpayable",
      "type": "constructor"
    },
    {
      "inputs": [],
      "name": "AccessControlBadConfirmation",
      "type": "error"
    },
    {
      "inputs": [
        {
          "internalType": "address",
          "name": "account",
          "type": "address"
        },
        {
          "internalType": "bytes32",
          "name": "neededRole",
          "type": "bytes32"
        }
      ],
      "name": "AccessControlUnauthorizedAccount",
      "type": "error"
    },
    {
      "anonymous": false,
      "inputs": [
        {
          "indexed": true,
          "internalType": "string",
          "name": "workgroupId",
          "type": "string"
        },
        {
          "indexed": false,
          "internalType": "string",
          "name": "anchorHash",
          "type": "string"
        }
      ],
      "name": "AnchorHashSet",
      "type": "event"
    },
    {
      "anonymous": false,
      "inputs": [
        {
          "indexed": true,
          "internalType": "bytes32",
          "name": "role",
          "type": "bytes32"
        },
        {
          "indexed": true,
          "internalType": "bytes32",
          "name": "previousAdminRole",
          "type": "bytes32"
        },
        {
          "indexed": true,
          "internalType": "bytes32",
          "name": "newAdminRole",
          "type": "bytes32"
        }
      ],
      "name": "RoleAdminChanged",
      "type": "event"
    },
    {
      "anonymous": false,
      "inputs": [
        {
          "indexed": true,
          "internalType": "bytes32",
          "name": "role",
          "type": "bytes32"
        },
        {
          "indexed": true,
          "internalType": "address",
          "name": "account",
          "type": "address"
        },
        {
          "indexed": true,
          "internalType": "address",
          "name": "sender",
          "type": "address"
        }
      ],
      "name": "RoleGranted",
      "type": "event"
    },
    {
      "anonymous": false,
      "inputs": [
        {
          "indexed": true,
          "internalType": "bytes32",
          "name": "role",
          "type": "bytes32"
        },
        {
          "indexed": true,
          "internalType": "address",
          "name": "account",
          "type": "address"
        },
        {
          "indexed": true,
          "internalType": "address",
          "name": "sender",
          "type": "address"
        }
      ],
      "name": "RoleRevoked",
      "type": "event"
    },
    {
      "inputs": [],
      "name": "ADMIN_ROLE",
      "outputs": [
        {
          "internalType": "bytes32",
          "name": "",
          "type": "bytes32"
        }
      ],
      "stateMutability": "view",
      "type": "function"
    },
    {
      "inputs": [],
      "name": "DEFAULT_ADMIN_ROLE",
      "outputs": [
        {
          "internalType": "bytes32",
          "name": "",
          "type": "bytes32"
        }
      ],
      "stateMutability": "view",
      "type": "function"
    },
    {
      "inputs": [
        {
          "internalType": "string",
          "name": "",
          "type": "string"
        }
      ],
      "name": "anchorHashStore",
      "outputs": [
        {
          "internalType": "string",
          "name": "",
          "type": "string"
        }
      ],
      "stateMutability": "view",
      "type": "function"
    },
    {
      "inputs": [
        {
          "internalType": "string",
          "name": "_workgroupId",
          "type": "string"
        }
      ],
      "name": "getAnchorHash",
      "outputs": [
        {
          "internalType": "string",
          "name": "",
          "type": "string"
        }
      ],
      "stateMutability": "view",
      "type": "function"
    },
    {
      "inputs": [
        {
          "internalType": "bytes32",
          "name": "role",
          "type": "bytes32"
        }
      ],
      "name": "getRoleAdmin",
      "outputs": [
        {
          "internalType": "bytes32",
          "name": "",
          "type": "bytes32"
        }
      ],
      "stateMutability": "view",
      "type": "function"
    },
    {
      "inputs": [
        {
          "internalType": "bytes32",
          "name": "role",
          "type": "bytes32"
        },
        {
          "internalType": "address",
          "name": "account",
          "type": "address"
        }
      ],
      "name": "grantRole",
      "outputs": [],
      "stateMutability": "nonpayable",
      "type": "function"
    },
    {
      "inputs": [
        {
          "internalType": "bytes32",
          "name": "role",
          "type": "bytes32"
        },
        {
          "internalType": "address",
          "name": "account",
          "type": "address"
        }
      ],
      "name": "hasRole",
      "outputs": [
        {
          "internalType": "bool",
          "name": "",
          "type": "bool"
        }
      ],
      "stateMutability": "view",
      "type": "function"
    },
    {
      "inputs": [
        {
          "internalType": "bytes32",
          "name": "role",
          "type": "bytes32"
        },
        {
          "internalType": "address",
          "name": "callerConfirmation",
          "type": "address"
        }
      ],
      "name": "renounceRole",
      "outputs": [],
      "stateMutability": "nonpayable",
      "type": "function"
    },
    {
      "inputs": [
        {
          "internalType": "bytes32",
          "name": "role",
          "type": "bytes32"
        },
        {
          "internalType": "address",
          "name": "account",
          "type": "address"
        }
      ],
      "name": "revokeRole",
      "outputs": [],
      "stateMutability": "nonpayable",
      "type": "function"
    },
    {
      "inputs": [
        {
          "internalType": "string",
          "name": "_workgroupId",
          "type": "string"
        },
        {
          "internalType": "string",
          "name": "_anchorHash",
          "type": "string"
        }
      ],
      "name": "setAnchorHash",
      "outputs": [],
      "stateMutability": "nonpayable",
      "type": "function"
    },
    {
      "inputs": [
        {
          "internalType": "bytes4",
          "name": "interfaceId",
          "type": "bytes4"
        }
      ],
      "name": "supportsInterface",
      "outputs": [
        {
          "internalType": "bool",
          "name": "",
          "type": "bool"
        }
      ],
      "stateMutability": "view",
      "type": "function"
    }
  ],
  "bytecode": "0x60806040523480156200001157600080fd5b5060405162001b8438038062001b8483398181016040528101906200003791906200042b565b6200004c6000801b33620000c860201b60201c565b5060005b8151811015620000c057620000a97fa49807205ce4d355092ef5a8a18f56e8913cf4a201fbe287825b095693c217758383815181106200009557620000946200047c565b5b6020026020010151620000c860201b60201c565b508080620000b790620004e4565b91505062000050565b505062000531565b6000620000dc8383620001cb60201b60201c565b620001c057600160008085815260200190815260200160002060000160008473ffffffffffffffffffffffffffffffffffffffff1673ffffffffffffffffffffffffffffffffffffffff16815260200190815260200160002060006101000a81548160ff0219169083151502179055506200015c6200023560201b60201c565b73ffffffffffffffffffffffffffffffffffffffff168273ffffffffffffffffffffffffffffffffffffffff16847f2f8788117e7eff1d82e926ec794901d17c78024a50270940304540a733656f0d60405160405180910390a460019050620001c5565b600090505b92915050565b600080600084815260200190815260200160002060000160008373ffffffffffffffffffffffffffffffffffffffff1673ffffffffffffffffffffffffffffffffffffffff16815260200190815260200160002060009054906101000a900460ff16905092915050565b600033905090565b6000604051905090565b600080fd5b600080fd5b600080fd5b6000601f19601f8301169050919050565b7f4e487b7100000000000000000000000000000000000000000000000000000000600052604160045260246000fd5b620002a18262000256565b810181811067ffffffffffffffff82111715620002c357620002c262000267565b5b80604052505050565b6000620002d86200023d565b9050620002e6828262000296565b919050565b600067ffffffffffffffff82111562000309576200030862000267565b5b602082029050602081019050919050565b600080fd5b600073ffffffffffffffffffffffffffffffffffffffff82169050919050565b60006200034c826200031f565b9050919050565b6200035e816200033f565b81146200036a57600080fd5b50565b6000815190506200037e8162000353565b92915050565b60006200039b6200039584620002eb565b620002cc565b90508083825260208201905060208402830185811115620003c157620003c06200031a565b5b835b81811015620003ee5780620003d988826200036d565b845260208401935050602081019050620003c3565b5050509392505050565b600082601f83011262000410576200040f62000251565b5b81516200042284826020860162000384565b91505092915050565b60006020828403121562000444576200044362000247565b5b600082015167ffffffffffffffff8111156200046557620004646200024c565b5b6200047384828501620003f8565b91505092915050565b7f4e487b7100000000000000000000000000000000000000000000000000000000600052603260045260246000fd5b7f4e487b7100000000000000000000000000000000000000000000000000000000600052601160045260246000fd5b6000819050919050565b6000620004f182620004da565b91507fffffffffffffffffffffffffffffffffffffffffffffffffffffffffffffffff8203620005265762000525620004ab565b5b600182019050919050565b61164380620005416000396000f3fe608060405234801561001057600080fd5b50600436106100a95760003560e01c8063513ec2f811610071578063513ec2f81461016257806375b238fc14610192578063890f10a0146101b057806391d14854146101e0578063a217fddf14610210578063d547741f1461022e576100a9565b806301ffc9a7146100ae578063248a9ca3146100de5780632588cd551461010e5780632f2ff15d1461012a57806336568abe14610146575b600080fd5b6100c860048036038101906100c39190610ad0565b61024a565b6040516100d59190610b18565b60405180910390f35b6100f860048036038101906100f39190610b69565b6102c4565b6040516101059190610ba5565b60405180910390f35b61012860048036038101906101239190610c25565b6102e3565b005b610144600480360381019061013f9190610d04565b6104ed565b005b610160600480360381019061015b9190610d04565b61050f565b005b61017c60048036038101906101779190610e85565b61058a565b6040516101899190610f4d565b60405180910390f35b61019a610640565b6040516101a79190610ba5565b60405180910390f35b6101ca60048036038101906101c59190610f6f565b610664565b6040516101d79190610f4d565b60405180910390f35b6101fa60048036038101906101f59190610d04565b610717565b6040516102079190610b18565b60405180910390f35b610218610781565b6040516102259190610ba5565b60405180910390f35b61024860048036038101906102439190610d04565b610788565b005b60007f7965db0b000000000000000000000000000000000000000000000000000000007bffffffffffffffffffffffffffffffffffffffffffffffffffffffff1916827bffffffffffffffffffffffffffffffffffffffffffffffffffffffff191614806102bd57506102bc826107aa565b5b9050919050565b6000806000838152602001908152602001600020600101549050919050565b61030d7fa49807205ce4d355092ef5a8a18f56e8913cf4a201fbe287825b095693c2177533610717565b61034c576040517f08c379a00000000000000000000000000000000000000000000000000000000081526004016103439061102e565b60405180910390fd5b60008484905011610392576040517f08c379a00000000000000000000000000000000000000000000000000000000081526004016103899061109a565b60405180910390fd5b602484849050106103d8576040517f08c379a00000000000000000000000000000000000000000000000000000000081526004016103cf9061112c565b60405180910390fd5b6000828290501161041e576040517f08c379a000000000000000000000000000000000000000000000000000000000815260040161041590611198565b60405180910390fd5b610100828290501115610466576040517f08c379a000000000000000000000000000000000000000000000000000000000815260040161045d9061122a565b60405180910390fd5b81816001868660405161047a92919061127a565b908152602001604051809103902091826104959291906114b4565b5083836040516104a692919061127a565b60405180910390207f6468084a45bfadcd3a84169a78a1a25c53317fc97f185e4037e0696cfc913ccc83836040516104df9291906115b1565b60405180910390a250505050565b6104f6826102c4565b6104ff81610814565b6105098383610828565b50505050565b610517610919565b73ffffffffffffffffffffffffffffffffffffffff168173ffffffffffffffffffffffffffffffffffffffff161461057b576040517f6697b23200000000000000000000000000000000000000000000000000000000815260040160405180910390fd5b6105858282610921565b505050565b60018180516020810182018051848252602083016020850120818352809550505050505060009150905080546105bf906112cd565b80601f01602080910402602001604051908101604052809291908181526020018280546105eb906112cd565b80156106385780601f1061060d57610100808354040283529160200191610638565b820191906000526020600020905b81548152906001019060200180831161061b57829003601f168201915b505050505081565b7fa49807205ce4d355092ef5a8a18f56e8913cf4a201fbe287825b095693c2177581565b60606001838360405161067892919061127a565b90815260200160405180910390208054610691906112cd565b80601f01602080910402602001604051908101604052809291908181526020018280546106bd906112cd565b801561070a5780601f106106df5761010080835404028352916020019161070a565b820191906000526020600020905b8154815290600101906020018083116106ed57829003601f168201915b5050505050905092915050565b600080600084815260200190815260200160002060000160008373ffffffffffffffffffffffffffffffffffffffff1673ffffffffffffffffffffffffffffffffffffffff16815260200190815260200160002060009054906101000a900460ff16905092915050565b6000801b81565b610791826102c4565b61079a81610814565b6107a48383610921565b50505050565b60007f01ffc9a7000000000000000000000000000000000000000000000000000000007bffffffffffffffffffffffffffffffffffffffffffffffffffffffff1916827bffffffffffffffffffffffffffffffffffffffffffffffffffffffff1916149050919050565b61082581610820610919565b610a13565b50565b60006108348383610717565b61090e57600160008085815260200190815260200160002060000160008473ffffffffffffffffffffffffffffffffffffffff1673ffffffffffffffffffffffffffffffffffffffff16815260200190815260200160002060006101000a81548160ff0219169083151502179055506108ab610919565b73ffffffffffffffffffffffffffffffffffffffff168273ffffffffffffffffffffffffffffffffffffffff16847f2f8788117e7eff1d82e926ec794901d17c78024a50270940304540a733656f0d60405160405180910390a460019050610913565b600090505b92915050565b600033905090565b600061092d8383610717565b15610a0857600080600085815260200190815260200160002060000160008473ffffffffffffffffffffffffffffffffffffffff1673ffffffffffffffffffffffffffffffffffffffff16815260200190815260200160002060006101000a81548160ff0219169083151502179055506109a5610919565b73ffffffffffffffffffffffffffffffffffffffff168273ffffffffffffffffffffffffffffffffffffffff16847ff6391f5c32d9c69d2a47ea670b442974b53935d1edc7fd64eb21e047a839171b60405160405180910390a460019050610a0d565b600090505b92915050565b610a1d8282610717565b610a605780826040517fe2517d3f000000000000000000000000000000000000000000000000000000008152600401610a579291906115e4565b60405180910390fd5b5050565b6000604051905090565b600080fd5b600080fd5b60007fffffffff0000000000000000000000000000000000000000000000000000000082169050919050565b610aad81610a78565b8114610ab857600080fd5b50565b600081359050610aca81610aa4565b92915050565b600060208284031215610ae657610ae5610a6e565b5b6000610af484828501610abb565b91505092915050565b60008115159050919050565b610b1281610afd565b82525050565b6000602082019050610b2d6000830184610b09565b92915050565b6000819050919050565b610b4681610b33565b8114610b5157600080fd5b50565b600081359050610b6381610b3d565b92915050565b600060208284031215610b7f57610b7e610a6e565b5b6000610b8d84828501610b54565b91505092915050565b610b9f81610b33565b82525050565b6000602082019050610bba6000830184610b96565b92915050565b600080fd5b600080fd5b600080fd5b60008083601f840112610be557610be4610bc0565b5b8235905067ffffffffffffffff811115610c0257610c01610bc5565b5b602083019150836001820283011115610c1e57610c1d610bca565b5b9250929050565b60008060008060408587031215610c3f57610c3e610a6e565b5b600085013567ffffffffffffffff811115610c5d57610c5c610a73565b5b610c6987828801610bcf565b9450945050602085013567ffffffffffffffff811115610c8c57610c8b610a73565b5b610c9887828801610bcf565b925092505092959194509250565b600073ffffffffffffffffffffffffffffffffffffffff82169050919050565b6000610cd182610ca6565b9050919050565b610ce181610cc6565b8114610cec57600080fd5b50565b600081359050610cfe81610cd8565b92915050565b60008060408385031215610d1b57610d1a610a6e565b5b6000610d2985828601610b54565b9250506020610d3a85828601610cef565b9150509250929050565b600080fd5b6000601f19601f8301169050919050565b7f4e487b7100000000000000000000000000000000000000000000000000000000600052604160045260246000fd5b610d9282610d49565b810181811067ffffffffffffffff82111715610db157610db0610d5a565b5b80604052505050565b6000610dc4610a64565b9050610dd08282610d89565b919050565b600067ffffffffffffffff821115610df057610def610d5a565b5b610df982610d49565b9050602081019050919050565b82818337600083830152505050565b6000610e28610e2384610dd5565b610dba565b905082815260208101848484011115610e4457610e43610d44565b5b610e4f848285610e06565b509392505050565b600082601f830112610e6c57610e6b610bc0565b5b8135610e7c848260208601610e15565b91505092915050565b600060208284031215610e9b57610e9a610a6e565b5b600082013567ffffffffffffffff811115610eb957610eb8610a73565b5b610ec584828501610e57565b91505092915050565b600081519050919050565b600082825260208201905092915050565b60005b83811015610f08578082015181840152602081019050610eed565b60008484015250505050565b6000610f1f82610ece565b610f298185610ed9565b9350610f39818560208601610eea565b610f4281610d49565b840191505092915050565b60006020820190508181036000830152610f678184610f14565b905092915050565b60008060208385031215610f8657610f85610a6e565b5b600083013567ffffffffffffffff811115610fa457610fa3610a73565b5b610fb085828601610bcf565b92509250509250929050565b7f4f6e6c792061646d696e2063616e2063616c6c20746869732066756e6374696f60008201527f6e00000000000000000000000000000000000000000000000000000000000000602082015250565b6000611018602183610ed9565b915061102382610fbc565b604082019050919050565b600060208201905081810360008301526110478161100b565b9050919050565b7f576f726b67726f757049642063616e6e6f7420626520656d7074790000000000600082015250565b6000611084601b83610ed9565b915061108f8261104e565b602082019050919050565b600060208201905081810360008301526110b381611077565b9050919050565b7f576f726b67726f757049642063616e6e6f74206578636565642033362062797460008201527f6573000000000000000000000000000000000000000000000000000000000000602082015250565b6000611116602283610ed9565b9150611121826110ba565b604082019050919050565b6000602082019050818103600083015261114581611109565b9050919050565b7f416e63686f72486173682063616e6e6f7420626520656d707479000000000000600082015250565b6000611182601a83610ed9565b915061118d8261114c565b602082019050919050565b600060208201905081810360008301526111b181611175565b9050919050565b7f416e63686f72486173682063616e6e6f7420657863656564203235362062797460008201527f6573000000000000000000000000000000000000000000000000000000000000602082015250565b6000611214602283610ed9565b915061121f826111b8565b604082019050919050565b6000602082019050818103600083015261124381611207565b9050919050565b600081905092915050565b6000611261838561124a565b935061126e838584610e06565b82840190509392505050565b6000611287828486611255565b91508190509392505050565b600082905092915050565b7f4e487b7100000000000000000000000000000000000000000000000000000000600052602260045260246000fd5b600060028204905060018216806112e557607f821691505b6020821081036112f8576112f761129e565b5b50919050565b60008190508160005260206000209050919050565b60006020601f8301049050919050565b600082821b905092915050565b6000600883026113607fffffffffffffffffffffffffffffffffffffffffffffffffffffffffffffffff82611323565b61136a8683611323565b95508019841693508086168417925050509392505050565b6000819050919050565b6000819050919050565b60006113b16113ac6113a784611382565b61138c565b611382565b9050919050565b6000819050919050565b6113cb83611396565b6113df6113d7826113b8565b848454611330565b825550505050565b600090565b6113f46113e7565b6113ff8184846113c2565b505050565b5b81811015611423576114186000826113ec565b600181019050611405565b5050565b601f82111561146857611439816112fe565b61144284611313565b81016020851015611451578190505b61146561145d85611313565b830182611404565b50505b505050565b600082821c905092915050565b600061148b6000198460080261146d565b1980831691505092915050565b60006114a4838361147a565b9150826002028217905092915050565b6114be8383611293565b67ffffffffffffffff8111156114d7576114d6610d5a565b5b6114e182546112cd565b6114ec828285611427565b6000601f83116001811461151b5760008415611509578287013590505b6115138582611498565b86555061157b565b601f198416611529866112fe565b60005b828110156115515784890135825560018201915060208501945060208101905061152c565b8683101561156e578489013561156a601f89168261147a565b8355505b6001600288020188555050505b50505050505050565b60006115908385610ed9565b935061159d838584610e06565b6115a683610d49565b840190509392505050565b600060208201905081810360008301526115cc818486611584565b90509392505050565b6115de81610cc6565b82525050565b60006040820190506115f960008301856115d5565b6116066020830184610b96565b939250505056fea2646970667358221220398d681d049bf182f5cdf9c7ccbfff49c472631ea7fd7aa7def7b30e6140094e64736f6c63430008140033",
  "linkReferences": {},
  "deployedLinkReferences": {}
}