{
    "contractName": "CcsmBpiStateAnchor",
    "abi": [
        {
            "inputs": [
                {
                    "internalType": "address[]",
                    "name": "admins",
                    "type": "address[]"
                }
            ],
            "stateMutability": "nonpayable",
            "type": "constructor"
        },
        {
            "inputs": [],
            "name": "AccessControlBadConfirmation",
            "type": "error"
        },
        {
            "inputs": [
                {
                    "internalType": "address",
                    "name": "account",
                    "type": "address"
                },
                {
                    "internalType": "bytes32",
                    "name": "neededRole",
                    "type": "bytes32"
                }
            ],
            "name": "AccessControlUnauthorizedAccount",
            "type": "error"
        },
        {
            "anonymous": false,
            "inputs": [
                {
                    "indexed": true,
                    "internalType": "string",
                    "name": "workgroupId",
                    "type": "string"
                },
                {
                    "indexed": false,
                    "internalType": "string",
                    "name": "anchorHash",
                    "type": "string"
                }
            ],
            "name": "AnchorHashSet",
            "type": "event"
        },
        {
            "anonymous": false,
            "inputs": [
                {
                    "indexed": true,
                    "internalType": "bytes32",
                    "name": "role",
                    "type": "bytes32"
                },
                {
                    "indexed": true,
                    "internalType": "bytes32",
                    "name": "previousAdminRole",
                    "type": "bytes32"
                },
                {
                    "indexed": true,
                    "internalType": "bytes32",
                    "name": "newAdminRole",
                    "type": "bytes32"
                }
            ],
            "name": "RoleAdminChanged",
            "type": "event"
        },
        {
            "anonymous": false,
            "inputs": [
                {
                    "indexed": true,
                    "internalType": "bytes32",
                    "name": "role",
                    "type": "bytes32"
                },
                {
                    "indexed": true,
                    "internalType": "address",
                    "name": "account",
                    "type": "address"
                },
                {
                    "indexed": true,
                    "internalType": "address",
                    "name": "sender",
                    "type": "address"
                }
            ],
            "name": "RoleGranted",
            "type": "event"
        },
        {
            "anonymous": false,
            "inputs": [
                {
                    "indexed": true,
                    "internalType": "bytes32",
                    "name": "role",
                    "type": "bytes32"
                },
                {
                    "indexed": true,
                    "internalType": "address",
                    "name": "account",
                    "type": "address"
                },
                {
                    "indexed": true,
                    "internalType": "address",
                    "name": "sender",
                    "type": "address"
                }
            ],
            "name": "RoleRevoked",
            "type": "event"
        },
        {
            "inputs": [],
            "name": "ADMIN_ROLE",
            "outputs": [
                {
                    "internalType": "bytes32",
                    "name": "",
                    "type": "bytes32"
                }
            ],
            "stateMutability": "view",
            "type": "function"
        },
        {
            "inputs": [],
            "name": "DEFAULT_ADMIN_ROLE",
            "outputs": [
                {
                    "internalType": "bytes32",
                    "name": "",
                    "type": "bytes32"
                }
            ],
            "stateMutability": "view",
            "type": "function"
        },
        {
            "inputs": [
                {
                    "internalType": "string",
                    "name": "",
                    "type": "string"
                }
            ],
            "name": "anchorHashStore",
            "outputs": [
                {
                    "internalType": "string",
                    "name": "",
                    "type": "string"
                }
            ],
            "stateMutability": "view",
            "type": "function"
        },
        {
            "inputs": [
                {
                    "internalType": "string",
                    "name": "_workgroupId",
                    "type": "string"
                }
            ],
            "name": "getAnchorHash",
            "outputs": [
                {
                    "internalType": "string",
                    "name": "",
                    "type": "string"
                }
            ],
            "stateMutability": "view",
            "type": "function"
        },
        {
            "inputs": [
                {
                    "internalType": "bytes32",
                    "name": "role",
                    "type": "bytes32"
                }
            ],
            "name": "getRoleAdmin",
            "outputs": [
                {
                    "internalType": "bytes32",
                    "name": "",
                    "type": "bytes32"
                }
            ],
            "stateMutability": "view",
            "type": "function"
        },
        {
            "inputs": [
                {
                    "internalType": "bytes32",
                    "name": "role",
                    "type": "bytes32"
                },
                {
                    "internalType": "address",
                    "name": "account",
                    "type": "address"
                }
            ],
            "name": "grantRole",
            "outputs": [],
            "stateMutability": "nonpayable",
            "type": "function"
        },
        {
            "inputs": [
                {
                    "internalType": "bytes32",
                    "name": "role",
                    "type": "bytes32"
                },
                {
                    "internalType": "address",
                    "name": "account",
                    "type": "address"
                }
            ],
            "name": "hasRole",
            "outputs": [
                {
                    "internalType": "bool",
                    "name": "",
                    "type": "bool"
                }
            ],
            "stateMutability": "view",
            "type": "function"
        },
        {
            "inputs": [
                {
                    "internalType": "bytes32",
                    "name": "role",
                    "type": "bytes32"
                },
                {
                    "internalType": "address",
                    "name": "callerConfirmation",
                    "type": "address"
                }
            ],
            "name": "renounceRole",
            "outputs": [],
            "stateMutability": "nonpayable",
            "type": "function"
        },
        {
            "inputs": [
                {
                    "internalType": "bytes32",
                    "name": "role",
                    "type": "bytes32"
                },
                {
                    "internalType": "address",
                    "name": "account",
                    "type": "address"
                }
            ],
            "name": "revokeRole",
            "outputs": [],
            "stateMutability": "nonpayable",
            "type": "function"
        },
        {
            "inputs": [
                {
                    "internalType": "string",
                    "name": "_workgroupId",
                    "type": "string"
                },
                {
                    "internalType": "string",
                    "name": "_anchorHash",
                    "type": "string"
                }
            ],
            "name": "setAnchorHash",
            "outputs": [],
            "stateMutability": "nonpayable",
            "type": "function"
        },
        {
            "inputs": [
                {
                    "internalType": "bytes4",
                    "name": "interfaceId",
                    "type": "bytes4"
                }
            ],
            "name": "supportsInterface",
            "outputs": [
                {
                    "internalType": "bool",
                    "name": "",
                    "type": "bool"
                }
            ],
            "stateMutability": "view",
            "type": "function"
        }
    ],
    "bytecode": "608060405234801562000010575f80fd5b5060405162000e6a38038062000e6a833981016040819052620000339162000194565b6200003f5f33620000b8565b505f5b8151811015620000b0576200009a7fa49807205ce4d355092ef5a8a18f56e8913cf4a201fbe287825b095693c2177583838151811062000086576200008662000261565b6020026020010151620000b860201b60201c565b5080620000a78162000275565b91505062000042565b50506200029a565b5f828152602081815260408083206001600160a01b038516845290915281205460ff166200015b575f838152602081815260408083206001600160a01b03861684529091529020805460ff19166001179055620001123390565b6001600160a01b0316826001600160a01b0316847f2f8788117e7eff1d82e926ec794901d17c78024a50270940304540a733656f0d60405160405180910390a45060016200015e565b505f5b92915050565b634e487b7160e01b5f52604160045260245ffd5b80516001600160a01b03811681146200018f575f80fd5b919050565b5f6020808385031215620001a6575f80fd5b82516001600160401b0380821115620001bd575f80fd5b818501915085601f830112620001d1575f80fd5b815181811115620001e657620001e662000164565b8060051b604051601f19603f830116810181811085821117156200020e576200020e62000164565b6040529182528482019250838101850191888311156200022c575f80fd5b938501935b828510156200025557620002458562000178565b8452938501939285019262000231565b98975050505050505050565b634e487b7160e01b5f52603260045260245ffd5b5f600182016200029357634e487b7160e01b5f52601160045260245ffd5b5060010190565b610bc280620002a85f395ff3fe608060405234801561000f575f80fd5b50600436106100a6575f3560e01c8063513ec2f81161006e578063513ec2f81461013d57806375b238fc1461015d578063890f10a01461018457806391d1485414610197578063a217fddf146101aa578063d547741f146101b1575f80fd5b806301ffc9a7146100aa578063248a9ca3146100d25780632588cd55146101025780632f2ff15d1461011757806336568abe1461012a575b5f80fd5b6100bd6100b836600461079b565b6101c4565b60405190151581526020015b60405180910390f35b6100f46100e03660046107c9565b5f9081526020819052604090206001015490565b6040519081526020016100c9565b610115610110366004610825565b6101fa565b005b61011561012536600461088c565b610457565b61011561013836600461088c565b610481565b61015061014b3660046108d9565b6104b9565b6040516100c99190610984565b6100f47fa49807205ce4d355092ef5a8a18f56e8913cf4a201fbe287825b095693c2177581565b6101506101923660046109cf565b61055c565b6100bd6101a536600461088c565b61060d565b6100f45f81565b6101156101bf36600461088c565b610635565b5f6001600160e01b03198216637965db0b60e01b14806101f457506301ffc9a760e01b6001600160e01b03198316145b92915050565b6102247fa49807205ce4d355092ef5a8a18f56e8913cf4a201fbe287825b095693c217753361060d565b61027f5760405162461bcd60e51b815260206004820152602160248201527f4f6e6c792061646d696e2063616e2063616c6c20746869732066756e6374696f6044820152603760f91b60648201526084015b60405180910390fd5b826102cc5760405162461bcd60e51b815260206004820152601b60248201527f576f726b67726f757049642063616e6e6f7420626520656d70747900000000006044820152606401610276565b602483106103275760405162461bcd60e51b815260206004820152602260248201527f576f726b67726f757049642063616e6e6f742065786365656420333620627974604482015261657360f01b6064820152608401610276565b806103745760405162461bcd60e51b815260206004820152601a60248201527f416e63686f72486173682063616e6e6f7420626520656d7074790000000000006044820152606401610276565b61010081116103d05760405162461bcd60e51b815260206004820152602260248201527f416e63686f72486173682063616e6e6f74206578636565642032353620627974604482015261657360f01b6064820152608401610276565b8181600186866040516103e4929190610a0e565b908152602001604051809103902091826103ff929190610aa2565b508383604051610410929190610a0e565b60405180910390207f6468084a45bfadcd3a84169a78a1a25c53317fc97f185e4037e0696cfc913ccc8383604051610449929190610b5e565b60405180910390a250505050565b5f8281526020819052604090206001015461047181610659565b61047b8383610666565b50505050565b6001600160a01b03811633146104aa5760405163334bd91960e11b815260040160405180910390fd5b6104b482826106f5565b505050565b8051602081830181018051600182529282019190930120915280546104dd90610a1d565b80601f016020809104026020016040519081016040528092919081815260200182805461050990610a1d565b80156105545780601f1061052b57610100808354040283529160200191610554565b820191905f5260205f20905b81548152906001019060200180831161053757829003601f168201915b505050505081565b606060018383604051610570929190610a0e565b9081526020016040518091039020805461058990610a1d565b80601f01602080910402602001604051908101604052809291908181526020018280546105b590610a1d565b80156106005780601f106105d757610100808354040283529160200191610600565b820191905f5260205f20905b8154815290600101906020018083116105e357829003601f168201915b5050505050905092915050565b5f918252602082815260408084206001600160a01b0393909316845291905290205460ff1690565b5f8281526020819052604090206001015461064f81610659565b61047b83836106f5565b610663813361075e565b50565b5f610671838361060d565b6106ee575f838152602081815260408083206001600160a01b03861684529091529020805460ff191660011790556106a63390565b6001600160a01b0316826001600160a01b0316847f2f8788117e7eff1d82e926ec794901d17c78024a50270940304540a733656f0d60405160405180910390a45060016101f4565b505f6101f4565b5f610700838361060d565b156106ee575f838152602081815260408083206001600160a01b0386168085529252808320805460ff1916905551339286917ff6391f5c32d9c69d2a47ea670b442974b53935d1edc7fd64eb21e047a839171b9190a45060016101f4565b610768828261060d565b6107975760405163e2517d3f60e01b81526001600160a01b038216600482015260248101839052604401610276565b5050565b5f602082840312156107ab575f80fd5b81356001600160e01b0319811681146107c2575f80fd5b9392505050565b5f602082840312156107d9575f80fd5b5035919050565b5f8083601f8401126107f0575f80fd5b50813567ffffffffffffffff811115610807575f80fd5b60208301915083602082850101111561081e575f80fd5b9250929050565b5f805f8060408587031215610838575f80fd5b843567ffffffffffffffff8082111561084f575f80fd5b61085b888389016107e0565b90965094506020870135915080821115610873575f80fd5b50610880878288016107e0565b95989497509550505050565b5f806040838503121561089d575f80fd5b8235915060208301356001600160a01b03811681146108ba575f80fd5b809150509250929050565b634e487b7160e01b5f52604160045260245ffd5b5f602082840312156108e9575f80fd5b813567ffffffffffffffff80821115610900575f80fd5b818401915084601f830112610913575f80fd5b813581811115610925576109256108c5565b604051601f8201601f19908116603f0116810190838211818310171561094d5761094d6108c5565b81604052828152876020848701011115610965575f80fd5b826020860160208301375f928101602001929092525095945050505050565b5f6020808352835180828501525f5b818110156109af57858101830151858201604001528201610993565b505f604082860101526040601f19601f8301168501019250505092915050565b5f80602083850312156109e0575f80fd5b823567ffffffffffffffff8111156109f6575f80fd5b610a02858286016107e0565b90969095509350505050565b818382375f9101908152919050565b600181811c90821680610a3157607f821691505b602082108103610a4f57634e487b7160e01b5f52602260045260245ffd5b50919050565b601f8211156104b4575f81815260208120601f850160051c81016020861015610a7b5750805b601f850160051c820191505b81811015610a9a57828155600101610a87565b505050505050565b67ffffffffffffffff831115610aba57610aba6108c5565b610ace83610ac88354610a1d565b83610a55565b5f601f841160018114610aff575f8515610ae85750838201355b5f19600387901b1c1916600186901b178355610b57565b5f83815260209020601f19861690835b82811015610b2f5786850135825560209485019460019092019101610b0f565b5086821015610b4b575f1960f88860031b161c19848701351681555b505060018560011b0183555b5050505050565b60208152816020820152818360408301375f818301604090810191909152601f909201601f1916010191905056fea2646970667358221220ade2e4a77495a119705c5883b8d9dd79748bffa4886613c23af77be9e6634eb264736f6c63430008140033",
    "sourcePath": "/Users/biswashreedey/IdeaProjects/baseline/examples/bri-3/src/bri/ccsm/contracts/CcsmBpiStateAnchor.sol",
    "compiler": {
        "name": "solc",
        "version": "0.8.20+commit.a1b79de6"
    },
    "functionHashes": {
        "ADMIN_ROLE()": "75b238fc",
        "DEFAULT_ADMIN_ROLE()": "a217fddf",
        "anchorHashStore(string)": "513ec2f8",
        "getAnchorHash(string)": "890f10a0",
        "getRoleAdmin(bytes32)": "248a9ca3",
        "grantRole(bytes32,address)": "2f2ff15d",
        "hasRole(bytes32,address)": "91d14854",
        "renounceRole(bytes32,address)": "36568abe",
        "revokeRole(bytes32,address)": "d547741f",
        "setAnchorHash(string,string)": "2588cd55",
        "supportsInterface(bytes4)": "01ffc9a7"
    },
    "gasEstimates": {
        "creation": {
            "codeDepositCost": "602000",
            "executionCost": "infinite",
            "totalCost": "infinite"
        },
        "external": {
            "ADMIN_ROLE()": "216",
            "DEFAULT_ADMIN_ROLE()": "281",
            "anchorHashStore(string)": "infinite",
            "getAnchorHash(string)": "infinite",
            "getRoleAdmin(bytes32)": "2467",
            "grantRole(bytes32,address)": "infinite",
            "hasRole(bytes32,address)": "2684",
            "renounceRole(bytes32,address)": "29077",
            "revokeRole(bytes32,address)": "infinite",
            "setAnchorHash(string,string)": "infinite",
            "supportsInterface(bytes4)": "424"
        }
    }
}