{
  "contractName": "Shield",
  "abi": [
    {
      "inputs": [
        {
          "internalType": "address",
          "name": "_verifier",
          "type": "address"
        },
        {
          "internalType": "uint256",
          "name": "_treeHeight",
          "type": "uint256"
        }
      ],
      "stateMutability": "nonpayable",
      "type": "constructor"
    },
    {
      "anonymous": false,
      "inputs": [
        {
          "indexed": false,
          "internalType": "uint256",
          "name": "leafIndex",
          "type": "uint256"
        },
        {
          "indexed": false,
          "internalType": "bytes32",
          "name": "leafValue",
          "type": "bytes32"
        },
        {
          "indexed": false,
          "internalType": "bytes32",
          "name": "root",
          "type": "bytes32"
        }
      ],
      "name": "NewLeaf",
      "type": "event"
    },
    {
      "anonymous": false,
      "inputs": [
        {
          "indexed": false,
          "internalType": "uint256",
          "name": "minLeafIndex",
          "type": "uint256"
        },
        {
          "indexed": false,
          "internalType": "bytes32[]",
          "name": "leafValues",
          "type": "bytes32[]"
        },
        {
          "indexed": false,
          "internalType": "bytes32",
          "name": "root",
          "type": "bytes32"
        }
      ],
      "name": "NewLeaves",
      "type": "event"
    },
    {
      "anonymous": false,
      "inputs": [
        {
          "indexed": false,
          "internalType": "bytes27",
          "name": "leftInput",
          "type": "bytes27"
        },
        {
          "indexed": false,
          "internalType": "bytes27",
          "name": "rightInput",
          "type": "bytes27"
        },
        {
          "indexed": false,
          "internalType": "bytes32",
          "name": "output",
          "type": "bytes32"
        },
        {
          "indexed": false,
          "internalType": "uint256",
          "name": "nodeIndex",
          "type": "uint256"
        }
      ],
      "name": "Output",
      "type": "event"
    },
    {
      "inputs": [
        {
          "internalType": "uint256",
          "name": "",
          "type": "uint256"
        }
      ],
      "name": "frontier",
      "outputs": [
        {
          "internalType": "bytes27",
          "name": "",
          "type": "bytes27"
        }
      ],
      "stateMutability": "view",
      "type": "function"
    },
    {
      "inputs": [],
      "name": "latestRoot",
      "outputs": [
        {
          "internalType": "bytes32",
          "name": "",
          "type": "bytes32"
        }
      ],
      "stateMutability": "view",
      "type": "function"
    },
    {
      "inputs": [],
      "name": "leafCount",
      "outputs": [
        {
          "internalType": "uint256",
          "name": "",
          "type": "uint256"
        }
      ],
      "stateMutability": "view",
      "type": "function"
    },
    {
      "inputs": [],
      "name": "treeHeight",
      "outputs": [
        {
          "internalType": "uint256",
          "name": "",
          "type": "uint256"
        }
      ],
      "stateMutability": "view",
      "type": "function"
    },
    {
      "inputs": [],
      "name": "treeWidth",
      "outputs": [
        {
          "internalType": "uint256",
          "name": "",
          "type": "uint256"
        }
      ],
      "stateMutability": "view",
      "type": "function"
    },
    {
      "inputs": [],
      "name": "zero",
      "outputs": [
        {
          "internalType": "bytes27",
          "name": "",
          "type": "bytes27"
        }
      ],
      "stateMutability": "view",
      "type": "function"
    },
    {
      "inputs": [],
      "name": "getVerifier",
      "outputs": [
        {
          "internalType": "address",
          "name": "",
          "type": "address"
        }
      ],
      "stateMutability": "view",
      "type": "function"
    },
    {
      "inputs": [
        {
          "internalType": "uint256[2]",
          "name": "_proofA",
          "type": "uint256[2]"
        },
        {
          "internalType": "uint256[2][2]",
          "name": "_proofB",
          "type": "uint256[2][2]"
        },
        {
          "internalType": "uint256[2]",
          "name": "_proofC",
          "type": "uint256[2]"
        },
        {
          "internalType": "uint256[1]",
          "name": "_publicInputs",
          "type": "uint256[1]"
        },
        {
          "internalType": "bytes32",
          "name": "_newCommitment",
          "type": "bytes32"
        }
      ],
      "name": "verifyAndPush",
      "outputs": [
        {
          "internalType": "bool",
          "name": "",
          "type": "bool"
        }
      ],
      "stateMutability": "nonpayable",
      "type": "function"
    }
  ],
  "bytecode": "0x6080604052600060281b600460006101000a8154817affffffffffffffffffffffffffffffffffffffffffffffffffffff021916908360281c02179055503480156200004a57600080fd5b506040516200157538038062001575833981810160405281019062000070919062000107565b80806000819055506000546002620000899190620001a9565b6001819055505081602660006101000a81548173ffffffffffffffffffffffffffffffffffffffff021916908373ffffffffffffffffffffffffffffffffffffffff160217905550505062000399565b600081519050620000ea8162000365565b92915050565b60008151905062000101816200037f565b92915050565b6000806040838503121562000121576200012062000353565b5b60006200013185828601620000d9565b92505060206200014485828601620000f0565b9150509250929050565b6000808291508390505b6001851115620001a05780860481111562000178576200017762000324565b5b6001851615620001885780820291505b8081029050620001988562000358565b945062000158565b94509492505050565b6000620001b6826200031a565b9150620001c3836200031a565b9250620001f27fffffffffffffffffffffffffffffffffffffffffffffffffffffffffffffffff8484620001fa565b905092915050565b6000826200020c5760019050620002df565b816200021c5760009050620002df565b8160018114620002355760028114620002405762000276565b6001915050620002df565b60ff84111562000255576200025462000324565b5b8360020a9150848211156200026f576200026e62000324565b5b50620002df565b5060208310610133831016604e8410600b8410161715620002b05782820a905083811115620002aa57620002a962000324565b5b620002df565b620002bf84848460016200014e565b92509050818404811115620002d957620002d862000324565b5b81810290505b9392505050565b6000620002f382620002fa565b9050919050565b600073ffffffffffffffffffffffffffffffffffffffff82169050919050565b6000819050919050565b7f4e487b7100000000000000000000000000000000000000000000000000000000600052601160045260246000fd5b600080fd5b60008160011c9050919050565b6200037081620002e6565b81146200037c57600080fd5b50565b6200038a816200031a565b81146200039657600080fd5b50565b6111cc80620003a96000396000f3fe608060405234801561001057600080fd5b50600436106100885760003560e01c806376c601b11161005b57806376c601b114610117578063bc1b392d14610135578063d7b0fef114610153578063e21318fc1461017157610088565b806301e3e9151461008d57806330e69fc3146100ab57806346657fe9146100c95780636e0c3fee146100e7575b600080fd5b6100956101a1565b6040516100a29190610c67565b60405180910390f35b6100b36101a7565b6040516100c09190610c67565b60405180910390f35b6100d16101ad565b6040516100de9190610b74565b60405180910390f35b61010160048036038101906100fc919061091b565b6101d7565b60405161010e9190610bf1565b60405180910390f35b61011f6101fa565b60405161012c9190610c67565b60405180910390f35b61013d610200565b60405161014a9190610bf1565b60405180910390f35b61015b610213565b6040516101689190610c0c565b60405180910390f35b61018b60048036038101906101869190610870565b610219565b6040516101989190610bd6565b60405180910390f35b60005481565b60035481565b6000602660009054906101000a900473ffffffffffffffffffffffffffffffffffffffff16905090565b600581602181106101e757600080fd5b016000915054906101000a900460281b81565b60015481565b600460009054906101000a900460281b81565b60025481565b600080602660009054906101000a900473ffffffffffffffffffffffffffffffffffffffff1673ffffffffffffffffffffffffffffffffffffffff166343753b4d888888886040518563ffffffff1660e01b815260040161027d9493929190610b8f565b602060405180830381600087803b15801561029757600080fd5b505af11580156102ab573d6000803e3d6000fd5b505050506040513d601f19601f820116820180604052508101906102cf91906108ee565b905080610311576040517f08c379a000000000000000000000000000000000000000000000000000000000815260040161030890610c27565b60405180910390fd5b61031a83610329565b50600191505095945050505050565b600060035460015411610371576040517f08c379a000000000000000000000000000000000000000000000000000000000815260040161036890610c47565b60405180910390fd5b600061037e6003546105c9565b90506000600180546003546103939190610df3565b61039d9190610e7a565b90506000602885901b90506000806103b3610659565b600080600090505b60005481101561054157878114156104165785600589602181106103e2576103e1611035565b5b0160006101000a8154817affffffffffffffffffffffffffffffffffffffffffffffffffffff021916908360281c02179055505b60006002886104259190610fa6565b14156104be576005816021811061043f5761043e611035565b5b0160009054906101000a900460281b945085935060405185815284601b8201526020846036836002600019fa9250826000811461047b5761047d565bfe5b505060288360006001811061049557610494611035565b5b6020020151901b955060026001886104ad9190610e7a565b6104b79190610e49565b965061052e565b859450600460009054906101000a900460281b935060405185815284601b8201526020846036836002600019fa925082600081146104fb576104fd565bfe5b505060288360006001811061051557610514611035565b5b6020020151901b955060028761052b9190610e49565b96505b808061053990610f5d565b9150506103bb565b508160006001811061055657610555611035565b5b60200201516002819055507f6a82ba2aa1d2c039c41e6e2b5a5a1090d09906f060d32af9c1ac0beff7af75c06003548a60025460405161059893929190610c82565b60405180910390a1600360008154809291906105b390610f5d565b9190505550600254975050505050505050919050565b600060016002836105da9190610fa6565b1415610654576000600190506000600290506000600182901b90505b600084141561065057600081836001886106109190610df3565b61061a9190610e7a565b6106249190610fa6565b14156106325782935061064b565b809150600181901b9050828061064790610f5d565b9350505b6105f6565b5050505b919050565b6040518060200160405280600190602082028036833780820191505090505090565b600061068e61068984610cde565b610cb9565b905080828560408602820111156106a8576106a7611098565b5b60005b858110156106d857816106be8882610806565b8452602084019350604083019250506001810190506106ab565b5050509392505050565b60006106f56106f084610d04565b610cb9565b9050808285602086028201111561070f5761070e611098565b5b60005b8581101561073f5781610725888261085b565b845260208401935060208301925050600181019050610712565b5050509392505050565b600061075c61075784610d2a565b610cb9565b9050808285602086028201111561077657610775611098565b5b60005b858110156107a6578161078c888261085b565b845260208401935060208301925050600181019050610779565b5050509392505050565b600082601f8301126107c5576107c4611093565b5b60026107d284828561067b565b91505092915050565b600082601f8301126107f0576107ef611093565b5b60016107fd8482856106e2565b91505092915050565b600082601f83011261081b5761081a611093565b5b6002610828848285610749565b91505092915050565b60008151905061084081611151565b92915050565b60008135905061085581611168565b92915050565b60008135905061086a8161117f565b92915050565b6000806000806000610140868803121561088d5761088c61109d565b5b600061089b88828901610806565b95505060406108ac888289016107b0565b94505060c06108bd88828901610806565b9350506101006108cf888289016107db565b9250506101206108e188828901610846565b9150509295509295909350565b6000602082840312156109045761090361109d565b5b600061091284828501610831565b91505092915050565b6000602082840312156109315761093061109d565b5b600061093f8482850161085b565b91505092915050565b60006109548383610a35565b60408301905092915050565b600061096c8383610b56565b60208301905092915050565b61098181610eae565b82525050565b61099081610d6e565b61099a8184610db6565b92506109a582610d50565b8060005b838110156109d65781516109bd8782610948565b96506109c883610d8f565b9250506001810190506109a9565b505050505050565b6109e781610d79565b6109f18184610dc1565b92506109fc82610d5a565b8060005b83811015610a2d578151610a148782610960565b9650610a1f83610d9c565b925050600181019050610a00565b505050505050565b610a3e81610d84565b610a488184610dcc565b9250610a5382610d64565b8060005b83811015610a84578151610a6b8782610960565b9650610a7683610da9565b925050600181019050610a57565b505050505050565b610a9581610d84565b610a9f8184610dd7565b9250610aaa82610d64565b8060005b83811015610adb578151610ac28782610960565b9650610acd83610da9565b925050600181019050610aae565b505050505050565b610aec81610ec0565b82525050565b610afb81610ecc565b82525050565b610b0a81610ef8565b82525050565b6000610b1d603683610de2565b9150610b28826110b3565b604082019050919050565b6000610b40602383610de2565b9150610b4b82611102565b604082019050919050565b610b5f81610f22565b82525050565b610b6e81610f22565b82525050565b6000602082019050610b896000830184610978565b92915050565b600061012082019050610ba56000830187610a8c565b610bb26040830186610987565b610bbf60c0830185610a8c565b610bcd6101008301846109de565b95945050505050565b6000602082019050610beb6000830184610ae3565b92915050565b6000602082019050610c066000830184610af2565b92915050565b6000602082019050610c216000830184610b01565b92915050565b60006020820190508181036000830152610c4081610b10565b9050919050565b60006020820190508181036000830152610c6081610b33565b9050919050565b6000602082019050610c7c6000830184610b65565b92915050565b6000606082019050610c976000830186610b65565b610ca46020830185610b01565b610cb16040830184610b01565b949350505050565b6000610cc3610cd4565b9050610ccf8282610f2c565b919050565b6000604051905090565b600067ffffffffffffffff821115610cf957610cf8611064565b5b602082029050919050565b600067ffffffffffffffff821115610d1f57610d1e611064565b5b602082029050919050565b600067ffffffffffffffff821115610d4557610d44611064565b5b602082029050919050565b6000819050919050565b6000819050919050565b6000819050919050565b600060029050919050565b600060019050919050565b600060029050919050565b6000602082019050919050565b6000602082019050919050565b6000602082019050919050565b600081905092915050565b600081905092915050565b600081905092915050565b600081905092915050565b600082825260208201905092915050565b6000610dfe82610f22565b9150610e0983610f22565b9250827fffffffffffffffffffffffffffffffffffffffffffffffffffffffffffffffff03821115610e3e57610e3d610fd7565b5b828201905092915050565b6000610e5482610f22565b9150610e5f83610f22565b925082610e6f57610e6e611006565b5b828204905092915050565b6000610e8582610f22565b9150610e9083610f22565b925082821015610ea357610ea2610fd7565b5b828203905092915050565b6000610eb982610f02565b9050919050565b60008115159050919050565b60007fffffffffffffffffffffffffffffffffffffffffffffffffffffff000000000082169050919050565b6000819050919050565b600073ffffffffffffffffffffffffffffffffffffffff82169050919050565b6000819050919050565b610f35826110a2565b810181811067ffffffffffffffff82111715610f5457610f53611064565b5b80604052505050565b6000610f6882610f22565b91507fffffffffffffffffffffffffffffffffffffffffffffffffffffffffffffffff821415610f9b57610f9a610fd7565b5b600182019050919050565b6000610fb182610f22565b9150610fbc83610f22565b925082610fcc57610fcb611006565b5b828206905092915050565b7f4e487b7100000000000000000000000000000000000000000000000000000000600052601160045260246000fd5b7f4e487b7100000000000000000000000000000000000000000000000000000000600052601260045260246000fd5b7f4e487b7100000000000000000000000000000000000000000000000000000000600052603260045260246000fd5b7f4e487b7100000000000000000000000000000000000000000000000000000000600052604160045260246000fd5b600080fd5b600080fd5b600080fd5b6000601f19601f8301169050919050565b7f5468652070726f6f66206661696c656420766572696669636174696f6e20696e60008201527f2074686520766572696669657220636f6e747261637400000000000000000000602082015250565b7f5468657265206973206e6f207370616365206c65667420696e2074686520747260008201527f65652e0000000000000000000000000000000000000000000000000000000000602082015250565b61115a81610ec0565b811461116557600080fd5b50565b61117181610ef8565b811461117c57600080fd5b50565b61118881610f22565b811461119357600080fd5b5056fea2646970667358221220bb4d1d47fcfdf2797efe4620425ba9718a267b8a541bd1b1abb15fe05f37b46164736f6c63430008050033",
  "immutableReferences": {},
  "source": "// SPDX-License-Identifier: CC0\npragma solidity ^0.8.5;\n\nimport \"./lib/MerkleTreeSHA256.sol\";\nimport \"./IShield.sol\";\nimport \"./IVerifier.sol\";\n\ncontract Shield is IShield, MerkleTreeSHA256 {\n    // CONTRACT INSTANCES:\n    IVerifier private verifier; // the verification smart contract\n\n    // FUNCTIONS:\n    constructor(address _verifier, uint _treeHeight) MerkleTreeSHA256(_treeHeight) {\n        verifier = IVerifier(_verifier);\n    }\n\n    // returns the verifier contract address that this shield contract uses for proof verification\n    function getVerifier() external view override returns (address) {\n        return address(verifier);\n    }\n\n    function verifyAndPush(\n        uint256[2] memory _proofA,\n        uint256[2][2] memory _proofB,\n        uint256[2] memory _proofC,\n        uint256[1] memory _publicInputs,\n        bytes32 _newCommitment\n    ) external override returns (bool) {\n\n        // verify the proof\n        bool result = verifier.verifyProof(_proofA, _proofB, _proofC, _publicInputs);\n        require(result, \"The proof failed verification in the verifier contract\");\n\n        // update contract states\n        insertLeaf(_newCommitment); // recalculate the root of the merkleTree as it's now different\n        return true;\n    }\n\n}\n",
  "sourcePath": "/Users/samuelstokes/repos/Web3Studio/baseline/examples/bri-2/contracts/contracts/privacy/Shield.sol",
  "compiler": {
    "name": "solc",
    "version": "0.8.5+commit.a4f2e591.Emscripten.clang"
  },
  "schemaVersion": "3.4.1",
  "updatedAt": "2021-07-13T16:34:28.377Z",
  "devdoc": {
    "kind": "dev",
    "methods": {},
    "version": 1
  },
  "userdoc": {
    "events": {
      "NewLeaf(uint256,bytes32,bytes32)": {
        "notice": "Explanation of the Merkle Tree in this contract: This is an append-only merkle tree; populated from left to right. We do not store all of the merkle tree's nodes. We only store the right-most 'frontier'  of nodes required to calculate the new root when the next new leaf value is added. TREE (not stored)                       FRONTIER (stored) 0                                     ? /             \\ 1                             2                     ? /       \\                     /       \\ 3             4               5               6             ? /   \\         /   \\           /   \\           /    \\ 7       8      9      10      11      12      13      14        ? /  \\    /  \\   /  \\    /  \\    /  \\    /  \\    /  \\    /  \\ 15  16  17 18  19  20  21  22  23  24  25  26  27  28  29  30      ? level  row  width  start#     end# 4     0   2^0=1   w=0     2^1-1=0 3     1   2^1=2   w=1     2^2-1=2 2     2   2^2=4   w=3     2^3-1=6 1     3   2^3=8   w=7     2^4-1=14 0     4   2^4=16  w=15    2^5-1=30 height = 4 w = width = 2 ** height = 2^4 = 16 #nodes = (2 ** (height + 1)) - 1 = 2^5-1 = 31"
      }
    },
    "kind": "user",
    "methods": {
      "zero()": {
        "notice": "Whilst ordinarily, we'd work solely with bytes32, we need to truncate nodeValues up the tree.  Therefore, we need to declare certain variables with lower byte-lengths: LEAF_HASHLENGTH = 32 bytes; NODE_HASHLENGTH = 27 bytes; 5 byte difference * 8 bits per byte = 40 bit shift to truncate hashlengths. 27 bytes * 2 inputs to sha() = 54 byte input to sha(). 54 = 0x36. If in future you want to change the truncation values, search for '27', '40' and '0x36'."
      }
    },
    "version": 1
  }
}