{
  "contractName": "Shield",
  "abi": [
    {
      "inputs": [
        {
          "internalType": "address",
          "name": "_verifier",
          "type": "address"
        },
        {
          "internalType": "uint256",
          "name": "_treeHeight",
          "type": "uint256"
        }
      ],
      "stateMutability": "nonpayable",
      "type": "constructor"
    },
    {
      "anonymous": false,
      "inputs": [
        {
          "indexed": false,
          "internalType": "uint256",
          "name": "leafIndex",
          "type": "uint256"
        },
        {
          "indexed": false,
          "internalType": "bytes32",
          "name": "leafValue",
          "type": "bytes32"
        },
        {
          "indexed": false,
          "internalType": "bytes32",
          "name": "root",
          "type": "bytes32"
        }
      ],
      "name": "NewLeaf",
      "type": "event"
    },
    {
      "anonymous": false,
      "inputs": [
        {
          "indexed": false,
          "internalType": "uint256",
          "name": "minLeafIndex",
          "type": "uint256"
        },
        {
          "indexed": false,
          "internalType": "bytes32[]",
          "name": "leafValues",
          "type": "bytes32[]"
        },
        {
          "indexed": false,
          "internalType": "bytes32",
          "name": "root",
          "type": "bytes32"
        }
      ],
      "name": "NewLeaves",
      "type": "event"
    },
    {
      "anonymous": false,
      "inputs": [
        {
          "indexed": false,
          "internalType": "bytes27",
          "name": "leftInput",
          "type": "bytes27"
        },
        {
          "indexed": false,
          "internalType": "bytes27",
          "name": "rightInput",
          "type": "bytes27"
        },
        {
          "indexed": false,
          "internalType": "bytes32",
          "name": "output",
          "type": "bytes32"
        },
        {
          "indexed": false,
          "internalType": "uint256",
          "name": "nodeIndex",
          "type": "uint256"
        }
      ],
      "name": "Output",
      "type": "event"
    },
    {
      "inputs": [
        {
          "internalType": "uint256",
          "name": "",
          "type": "uint256"
        }
      ],
      "name": "frontier",
      "outputs": [
        {
          "internalType": "bytes27",
          "name": "",
          "type": "bytes27"
        }
      ],
      "stateMutability": "view",
      "type": "function",
      "constant": true
    },
    {
      "inputs": [],
      "name": "latestRoot",
      "outputs": [
        {
          "internalType": "bytes32",
          "name": "",
          "type": "bytes32"
        }
      ],
      "stateMutability": "view",
      "type": "function",
      "constant": true
    },
    {
      "inputs": [],
      "name": "leafCount",
      "outputs": [
        {
          "internalType": "uint256",
          "name": "",
          "type": "uint256"
        }
      ],
      "stateMutability": "view",
      "type": "function",
      "constant": true
    },
    {
      "inputs": [],
      "name": "treeHeight",
      "outputs": [
        {
          "internalType": "uint256",
          "name": "",
          "type": "uint256"
        }
      ],
      "stateMutability": "view",
      "type": "function",
      "constant": true
    },
    {
      "inputs": [],
      "name": "treeWidth",
      "outputs": [
        {
          "internalType": "uint256",
          "name": "",
          "type": "uint256"
        }
      ],
      "stateMutability": "view",
      "type": "function",
      "constant": true
    },
    {
      "inputs": [],
      "name": "zero",
      "outputs": [
        {
          "internalType": "bytes27",
          "name": "",
          "type": "bytes27"
        }
      ],
      "stateMutability": "view",
      "type": "function",
      "constant": true
    },
    {
      "inputs": [],
      "name": "getVerifier",
      "outputs": [
        {
          "internalType": "address",
          "name": "",
          "type": "address"
        }
      ],
      "stateMutability": "view",
      "type": "function",
      "constant": true
    },
    {
      "inputs": [
        {
          "internalType": "uint256[2]",
          "name": "a",
          "type": "uint256[2]"
        },
        {
          "internalType": "uint256[2][2]",
          "name": "b",
          "type": "uint256[2][2]"
        },
        {
          "internalType": "uint256[2]",
          "name": "c",
          "type": "uint256[2]"
        },
        {
          "internalType": "uint256[5]",
          "name": "input",
          "type": "uint256[5]"
        },
        {
          "internalType": "bytes32",
          "name": "_newCommitment",
          "type": "bytes32"
        }
      ],
      "name": "verifyAndPush",
      "outputs": [
        {
          "internalType": "bool",
          "name": "",
          "type": "bool"
        }
      ],
      "stateMutability": "nonpayable",
      "type": "function"
    }
  ],
  "bytecode": "0x6080604052600060281b600460006101000a8154817affffffffffffffffffffffffffffffffffffffffffffffffffffff021916908360281c021790555034801561004957600080fd5b50604051610a22380380610a228339818101604052604081101561006c57600080fd5b810190808051906020019092919080519060200190929190505050808060008190555060005460020a6001819055505081602660006101000a81548173ffffffffffffffffffffffffffffffffffffffff021916908373ffffffffffffffffffffffffffffffffffffffff1602179055505050610934806100ee6000396000f3fe608060405234801561001057600080fd5b50600436106100885760003560e01c80636e0c3fee1161005b5780636e0c3fee1461027e57806376c601b1146102c8578063bc1b392d146102e6578063d7b0fef11461030c57610088565b806301e3e9151461008d57806330e69fc3146100ab578063323ad90d146100c957806346657fe91461024a575b600080fd5b61009561032a565b6040518082815260200191505060405180910390f35b6100b3610330565b6040518082815260200191505060405180910390f35b61023260048036036101c08110156100e057600080fd5b8101908080604001906002806020026040519081016040528092919082600260200280828437600081840152601f19601f82011690508083019250505050505091929192908060800190600280602002604051908101604052809291906000905b82821015610195578382604002016002806020026040519081016040528092919082600260200280828437600081840152601f19601f82011690508083019250505050505081526020019060010190610141565b50505050919291929080604001906002806020026040519081016040528092919082600260200280828437600081840152601f19601f82011690508083019250505050505091929192908060a001906005806020026040519081016040528092919082600560200280828437600081840152601f19601f820116905080830192505050505050919291929080359060200190929190505050610336565b60405180821515815260200191505060405180910390f35b610252610534565b604051808273ffffffffffffffffffffffffffffffffffffffff16815260200191505060405180910390f35b6102aa6004803603602081101561029457600080fd5b810190808035906020019092919050505061055e565b604051808264ffffffffff1916815260200191505060405180910390f35b6102d061057e565b6040518082815260200191505060405180910390f35b6102ee610584565b604051808264ffffffffff1916815260200191505060405180910390f35b610314610597565b6040518082815260200191505060405180910390f35b60005481565b60035481565b600080602660009054906101000a900473ffffffffffffffffffffffffffffffffffffffff1673ffffffffffffffffffffffffffffffffffffffff166334baeab9888888886040518563ffffffff1660e01b81526004018085600260200280838360005b838110156103b557808201518184015260208101905061039a565b505050509050018460026000925b818410156104095782846020020151600260200280838360005b838110156103f85780820151818401526020810190506103dd565b5050505090500192600101926103c3565b9250505083600260200280838360005b83811015610434578082015181840152602081019050610419565b5050505090500182600560200280838360005b83811015610462578082015181840152602081019050610447565b50505050905001945050505050602060405180830381600087803b15801561048957600080fd5b505af115801561049d573d6000803e3d6000fd5b505050506040513d60208110156104b357600080fd5b810190808051906020019092919050505090508061051c576040517f08c379a00000000000000000000000000000000000000000000000000000000081526004018080602001828103825260368152602001806108a66036913960400191505060405180910390fd5b6105258361059d565b50600191505095945050505050565b6000602660009054906101000a900473ffffffffffffffffffffffffffffffffffffffff16905090565b6005816021811061056b57fe5b016000915054906101000a900460281b81565b60015481565b600460009054906101000a900460281b81565b60025481565b6000600354600154116105fb576040517f08c379a00000000000000000000000000000000000000000000000000000000081526004018080602001828103825260238152602001806108dc6023913960400191505060405180910390fd5b600061060860035461080f565b9050600060018054600354010390506000602885901b905060008061062b610883565b600080600090505b600054811015610788578781141561068757856005896021811061065357fe5b0160006101000a8154817affffffffffffffffffffffffffffffffffffffffffffffffffffff021916908360281c02179055505b60006002888161069357fe5b06141561071457600581602181106106a757fe5b0160009054906101000a900460281b945085935060405185815284601b8201526020846036836002600019fa925082600081146106e3576106e5565bfe5b50506028836000600181106106f657fe5b6020020151901b95506002600188038161070c57fe5b04965061077b565b859450600460009054906101000a900460281b935060405185815284601b8201526020846036836002600019fa9250826000811461075157610753565bfe5b505060288360006001811061076457fe5b6020020151901b95506002878161077757fe5b0496505b8080600101915050610633565b508160006001811061079657fe5b60200201516002819055507f6a82ba2aa1d2c039c41e6e2b5a5a1090d09906f060d32af9c1ac0beff7af75c06003548a60025460405180848152602001838152602001828152602001935050505060405180910390a1600360008154809291906001019190505550600254975050505050505050919050565b600060016002838161081d57fe5b06141561087e576000600190506000600290506000600182901b90505b600084141561087a576000818360018801038161085357fe5b06141561086257829350610875565b809150600181901b905082806001019350505b61083a565b5050505b919050565b604051806020016040528060019060208202803683378082019150509050509056fe5468652070726f6f66206661696c656420766572696669636174696f6e20696e2074686520766572696669657220636f6e74726163745468657265206973206e6f207370616365206c65667420696e2074686520747265652ea2646970667358221220e7486f4ee87583d51c42fea95f9d1276edb32f1983d5b65dda1c40502f13a26464736f6c634300060c0033",
  "immutableReferences": {},
  "source": "// SPDX-License-Identifier: CC0\npragma solidity ^0.6.11;\n\nimport \"./lib/MerkleTreeSHA256.sol\";\nimport \"./IShield.sol\";\nimport \"./IVerifier.sol\";\n\ncontract Shield is IShield, MerkleTreeSHA256 {\n    // CONTRACT INSTANCES:\n    IVerifier private verifier; // the verification smart contract\n\n    // FUNCTIONS:\n    constructor(address _verifier, uint _treeHeight) public MerkleTreeSHA256(_treeHeight) {\n        verifier = IVerifier(_verifier);\n    }\n\n    // returns the verifier contract address that this shield contract uses for proof verification\n    function getVerifier() external override view returns (address) {\n        return address(verifier);\n    }\n\n    function verifyAndPush(\n        uint[2] memory a,\n        uint[2][2] memory b,\n        uint[2] memory c,\n        uint[5] memory input,\n        bytes32 _newCommitment\n    ) external override returns (bool) {\n\n        // verify the proof\n        bool result = verifier.verifyProof(a, b, c, input);\n        require(result, \"The proof failed verification in the verifier contract\");\n\n        // update contract states\n        insertLeaf(_newCommitment); // recalculate the root of the merkleTree as it's now different\n        return true;\n    }\n\n}",
  "sourcePath": "/root/battleship-final/baseline/examples/battleship/server/contracts/Shield.sol",
  "compiler": {
    "name": "solc",
    "version": "0.6.12+commit.27d51765.Emscripten.clang"
  },
  "schemaVersion": "3.4.3",
  "updatedAt": "2021-12-06T16:05:57.976Z",
  "networkType": "ethereum",
  "devdoc": {
    "kind": "dev",
    "methods": {},
    "version": 1
  },
  "userdoc": {
    "events": {
      "NewLeaf(uint256,bytes32,bytes32)": {
        "notice": "Explanation of the Merkle Tree in this contract: This is an append-only merkle tree; populated from left to right. We do not store all of the merkle tree's nodes. We only store the right-most 'frontier'  of nodes required to calculate the new root when the next new leaf value is added. TREE (not stored)                       FRONTIER (stored) 0                                     ? /             \\ 1                             2                     ? /       \\                     /       \\ 3             4               5               6             ? /   \\         /   \\           /   \\           /    \\ 7       8      9      10      11      12      13      14        ? /  \\    /  \\   /  \\    /  \\    /  \\    /  \\    /  \\    /  \\ 15  16  17 18  19  20  21  22  23  24  25  26  27  28  29  30      ? level  row  width  start#     end# 4     0   2^0=1   w=0     2^1-1=0 3     1   2^1=2   w=1     2^2-1=2 2     2   2^2=4   w=3     2^3-1=6 1     3   2^3=8   w=7     2^4-1=14 0     4   2^4=16  w=15    2^5-1=30 height = 4 w = width = 2 ** height = 2^4 = 16 #nodes = (2 ** (height + 1)) - 1 = 2^5-1 = 31"
      }
    },
    "kind": "user",
    "methods": {
      "zero()": {
        "notice": "Whilst ordinarily, we'd work solely with bytes32, we need to truncate nodeValues up the tree.  Therefore, we need to declare certain variables with lower byte-lengths: LEAF_HASHLENGTH = 32 bytes; NODE_HASHLENGTH = 27 bytes; 5 byte difference * 8 bits per byte = 40 bit shift to truncate hashlengths. 27 bytes * 2 inputs to sha() = 54 byte input to sha(). 54 = 0x36. If in future you want to change the truncation values, search for '27', '40' and '0x36'."
      }
    },
    "version": 1
  }
}