{
  "_format": "hh-sol-artifact-1",
  "contractName": "Workstep1Verifier",
  "sourceName": "contracts/workstep1Verifier.sol",
  "abi": [
    {
      "inputs": [
        {
          "internalType": "bytes",
          "name": "proof",
          "type": "bytes"
        },
        {
          "internalType": "uint256[]",
          "name": "pubSignals",
          "type": "uint256[]"
        }
      ],
      "name": "verifyProof",
      "outputs": [
        {
          "internalType": "bool",
          "name": "",
          "type": "bool"
        }
      ],
      "stateMutability": "view",
      "type": "function"
    }
  ],
  "bytecode": "0x608060405234801561001057600080fd5b50611dc3806100206000396000f3fe608060405234801561001057600080fd5b506004361061002b5760003560e01c80631e8e1e1314610030575b600080fd5b61004a60048036038101906100459190611cdf565b610060565b6040516100579190611d72565b60405180910390f35b6000611a1c565b600080600184846000805b821561009c5782840591508482028603905084955080945082820284039050829350809250610072565b60018411156100aa57600080fd5b60008612156100b95788860195505b85965050505050505092915050565b60405181602084028301815160208301925060005b82841015610120578185527f30644e72e131a029b85045b68181585d2833e84879b9709143e1f593f00000018451830991506020850194506020840193506100dd565b61014a7f30644e72e131a029b85045b68181585d2833e84879b9709143e1f593f000000183610067565b91506020850394506020840393508592505b828411156101c6577f30644e72e131a029b85045b68181585d2833e84879b9709143e1f593f00000018551830990507f30644e72e131a029b85045b68181585d2833e84879b9709143e1f593f000000184518309915080845260208503945060208403935061015c565b81845250505050505050565b7f30644e72e131a029b85045b68181585d2833e84879b9709143e1f593f00000018110610203576000805260206000f35b50565b61032081511461021a576000805260206000f35b6102286102608201516101d2565b6102366102808201516101d2565b6102446102a08201516101d2565b6102526102c08201516101d2565b6102606102e08201516101d2565b61026e6103008201516101d2565b61027c6103208201516101d2565b50565b60008060208501516102c085015260208301516102e08501526020800183015161030085015260406020018301516103208501526060602001830151610340850152608060200183015161036085015260a06020018301516103808501527f30644e72e131a029b85045b68181585d2833e84879b9709143e1f593f000000160e06102c08601200690508060208501527f30644e72e131a029b85045b68181585d2833e84879b9709143e1f593f00000016020808601200660408501527f30644e72e131a029b85045b68181585d2833e84879b9709143e1f593f0000001604060e08501200660008501527f30644e72e131a029b85045b68181585d2833e84879b9709143e1f593f000000160c06101208501200691508160608501527f30644e72e131a029b85045b68181585d2833e84879b9709143e1f593f000000182820960a08501527f30644e72e131a029b85045b68181585d2833e84879b9709143e1f593f000000182830991507f30644e72e131a029b85045b68181585d2833e84879b9709143e1f593f000000182830991507f30644e72e131a029b85045b68181585d2833e84879b9709143e1f593f000000182830991507f30644e72e131a029b85045b68181585d2833e84879b9709143e1f593f000000182830991507f30644e72e131a029b85045b68181585d2833e84879b9709143e1f593f000000182830991507f30644e72e131a029b85045b68181585d2833e84879b9709143e1f593f000000182830991507f30644e72e131a029b85045b68181585d2833e84879b9709143e1f593f000000182830991507f30644e72e131a029b85045b68181585d2833e84879b9709143e1f593f000000182830991507f30644e72e131a029b85045b68181585d2833e84879b9709143e1f593f000000182830991507f30644e72e131a029b85045b68181585d2833e84879b9709143e1f593f000000182830991507f30644e72e131a029b85045b68181585d2833e84879b9709143e1f593f000000182830991507f30644e72e131a029b85045b68181585d2833e84879b9709143e1f593f000000182830991507f30644e72e131a029b85045b68181585d2833e84879b9709143e1f593f000000182830991507f30644e72e131a029b85045b68181585d2833e84879b9709143e1f593f000000182830991507f30644e72e131a029b85045b68181585d2833e84879b9709143e1f593f000000182830991508160808501527f30644e72e131a029b85045b68181585d2833e84879b9709143e1f593f000000180600184030106915081610260850152816102808501527f30644e72e131a029b85045b68181585d2833e84879b9709143e1f593f000000160e0610260850120068060c08601527f30644e72e131a029b85045b68181585d2833e84879b9709143e1f593f000000181820992508260e08601527f30644e72e131a029b85045b68181585d2833e84879b9709143e1f593f00000018184099250826101008601527f30644e72e131a029b85045b68181585d2833e84879b9709143e1f593f00000018184099250826101208601527f30644e72e131a029b85045b68181585d2833e84879b9709143e1f593f00000018184099250826101408601527f30644e72e131a029b85045b68181585d2833e84879b9709143e1f593f00000018184099250826101608601527f30644e72e131a029b85045b68181585d2833e84879b9709143e1f593f000000160806101e086012006610180860152505050505050565b60017f30644e72e131a029b85045b68181585d2833e84879b9709143e1f593f0000001807f30644e72e131a029b85045b68181585d2833e84879b9709143e1f593f0000001836060860151030106618000096102a08301526107ec600261028084016100c8565b610260820151600191507f30644e72e131a029b85045b68181585d2833e84879b9709143e1f593f0000001816102a0850151096102a0840152505050565b60007f30644e72e131a029b85045b68181585d2833e84879b9709143e1f593f0000001807f30644e72e131a029b85045b68181585d2833e84879b9709143e1f593f000000160208601516102a086015109830301069050806101a0830152505050565b60008060007f30644e72e131a029b85045b68181585d2833e84879b9709143e1f593f00000016101a08601516103208601510892507f30644e72e131a029b85045b68181585d2833e84879b9709143e1f593f000000160208601516102c08601510991507f30644e72e131a029b85045b68181585d2833e84879b9709143e1f593f0000001610260850151830891507f30644e72e131a029b85045b68181585d2833e84879b9709143e1f593f00000016040860151830891507f30644e72e131a029b85045b68181585d2833e84879b9709143e1f593f000000160208601516102e08601510990507f30644e72e131a029b85045b68181585d2833e84879b9709143e1f593f0000001610280850151820890507f30644e72e131a029b85045b68181585d2833e84879b9709143e1f593f00000016040860151820890507f30644e72e131a029b85045b68181585d2833e84879b9709143e1f593f000000181830991507f30644e72e131a029b85045b68181585d2833e84879b9709143e1f593f000000160408601516102a08601510890507f30644e72e131a029b85045b68181585d2833e84879b9709143e1f593f000000181830991507f30644e72e131a029b85045b68181585d2833e84879b9709143e1f593f0000001610300850151830991507f30644e72e131a029b85045b68181585d2833e84879b9709143e1f593f00000016000860151830991507f30644e72e131a029b85045b68181585d2833e84879b9709143e1f593f000000160008601516102a08701510990507f30644e72e131a029b85045b68181585d2833e84879b9709143e1f593f00000016000860151820990507f30644e72e131a029b85045b68181585d2833e84879b9709143e1f593f000000181830891507f30644e72e131a029b85045b68181585d2833e84879b9709143e1f593f0000001827f30644e72e131a029b85045b68181585d2833e84879b9709143e1f593f00000018501030692507f30644e72e131a029b85045b68181585d2833e84879b9709143e1f593f000000161028086015184099250826101c08601525050505050565b81518152602082015160208201525050565b6040518151815260208201516020820152825160408201526020830151606082015260408260808360066107d05a03fa80610bec576000805260206000f35b50505050565b6000604051835181526020840151602082015284604082015260408160608360076107d05a03fa915081610c2a576000805260206000f35b825160408201526020830151606082015260408360808360066107d05a03fa915081610c5a576000805260206000f35b5050505050565b600060405183815284602082015285604082015260408160608360076107d05a03fa915081610c94576000805260206000f35b825160408201526020830151606082015260408360808360066107d05a03fa915081610cc4576000805260206000f35b505050505050565b600060405183815284602082015285604082015260408360608360076107d05a03fa915081610cff576000805260206000f35b505050505050565b6101e08201610d1a6101e0830182610b9b565b610d2e610180840151610220840183610bf2565b505050565b60008061022084017f30644e72e131a029b85045b68181585d2833e84879b9709143e1f593f000000160c0860151610260860151099250610db6837f29e79ad99d77a4ffcf4b8ab0e464b713c864049f2add12136968cff0864088eb7f1410aa6f48b6cf3bf598c6dfa5cb01466519164bd833de0e7827db62d8cac07884610ccc565b7f30644e72e131a029b85045b68181585d2833e84879b9709143e1f593f000000161028085015184099250610e2d837f1d0d822b29a0910be348f05ad545cfca3c4a45984ec7b3c071978ca4e979b6867f1689e43d6a0f29f2c00abcf49c803fa5c0ebbf4937b1ad668147399369a8fa7e84610c61565b7f30644e72e131a029b85045b68181585d2833e84879b9709143e1f593f000000160c0860151610280860151099250610ea8837f145db25e5672a52146b54883489d4339ba16367240f7dd1dacb09e4daf1189d77f1f3ae2a7d2308c43976c572190b3779f177a653b623119177aec86a173733e0984610c61565b7f30644e72e131a029b85045b68181585d2833e84879b9709143e1f593f000000160c08601516102a0860151099250610f23837f2ece7b42d73dbbda215415dad9da14a4e9f50453c2ea3c269d78f0c4f48b93927f1d854ccab14984cad21ee83abc5688656d4978607ee46ce05c6e30e70438934c84610c61565b60c08501519250610f76837f28dfa5635712fec932cb955efa78de7c3bb1d717ca47ac63d0028c25000ab9827f0c1d9a27ace009b0748df47d8996964d4c5efe448f5689be7f89b1c9b54d1fd484610c61565b7f30644e72e131a029b85045b68181585d2833e84879b9709143e1f593f000000160a08601516102608601510892507f30644e72e131a029b85045b68181585d2833e84879b9709143e1f593f00000016040860151840892507f30644e72e131a029b85045b68181585d2833e84879b9709143e1f593f000000160a086015160020991507f30644e72e131a029b85045b68181585d2833e84879b9709143e1f593f0000001610280850151830891507f30644e72e131a029b85045b68181585d2833e84879b9709143e1f593f00000016040860151830891507f30644e72e131a029b85045b68181585d2833e84879b9709143e1f593f000000182840992507f30644e72e131a029b85045b68181585d2833e84879b9709143e1f593f000000160a086015160030991507f30644e72e131a029b85045b68181585d2833e84879b9709143e1f593f00000016102a0850151830891507f30644e72e131a029b85045b68181585d2833e84879b9709143e1f593f00000016040860151830891507f30644e72e131a029b85045b68181585d2833e84879b9709143e1f593f000000182840992507f30644e72e131a029b85045b68181585d2833e84879b9709143e1f593f00000016000860151840992507f30644e72e131a029b85045b68181585d2833e84879b9709143e1f593f000000160c0860151840992507f30644e72e131a029b85045b68181585d2833e84879b9709143e1f593f000000160008601516102a08701510991507f30644e72e131a029b85045b68181585d2833e84879b9709143e1f593f00000016000860151830991507f30644e72e131a029b85045b68181585d2833e84879b9709143e1f593f000000160c0860151830991507f30644e72e131a029b85045b68181585d2833e84879b9709143e1f593f000000182840892507f30644e72e131a029b85045b68181585d2833e84879b9709143e1f593f0000001610180860151840892506112518360e0860183610bf2565b7f30644e72e131a029b85045b68181585d2833e84879b9709143e1f593f00000016102c085015160208701510992507f30644e72e131a029b85045b68181585d2833e84879b9709143e1f593f0000001610260850151840892507f30644e72e131a029b85045b68181585d2833e84879b9709143e1f593f00000016040860151840892507f30644e72e131a029b85045b68181585d2833e84879b9709143e1f593f00000016102e085015160208701510991507f30644e72e131a029b85045b68181585d2833e84879b9709143e1f593f0000001610280850151830891507f30644e72e131a029b85045b68181585d2833e84879b9709143e1f593f00000016040860151830891507f30644e72e131a029b85045b68181585d2833e84879b9709143e1f593f000000182840992507f30644e72e131a029b85045b68181585d2833e84879b9709143e1f593f00000016000860151840992507f30644e72e131a029b85045b68181585d2833e84879b9709143e1f593f000000160c0860151840992507f30644e72e131a029b85045b68181585d2833e84879b9709143e1f593f00000016020860151840992507f30644e72e131a029b85045b68181585d2833e84879b9709143e1f593f0000001610300850151840992507f30644e72e131a029b85045b68181585d2833e84879b9709143e1f593f0000001837f30644e72e131a029b85045b68181585d2833e84879b9709143e1f593f0000001030692506114bb837f1a57e0730386d03ce171300fd06d8df31762d7652b64af847809b15539bf96477f12515de6655d8e300d5106f29f03a0e8d28d2c9c2cf842475e26a42f3eca1c3784610c61565b6114c9610120850182610bad565b608085015192506114df83610160860183610bf2565b7f30644e72e131a029b85045b68181585d2833e84879b9709143e1f593f00000018384099250611514836101a0860183610bf2565b61152660e08601516020860183610bf2565b6115396101008601516060860183610bf2565b61154c61012086015160a0860183610bf2565b61159d6101408601517f28a149d8479d0660ccf9119b862a6296efb8955f144f3a4c28218cbdc30c4a3e7f268d5e96726a4f0a0af926881dd088840f0b189fc0bac1c06378ca1342030d4784610c61565b6115ee6101608601517f0e7776860985ee7b82e3ff3a29a0704c80cc4f49fd6a08562de1286b1a4147737f16d85b4ca470712c952db758ba22542a1494058886d0cf5bc1d6e2796d5d7a3a84610c61565b6101c085015192507f30644e72e131a029b85045b68181585d2833e84879b9709143e1f593f00000018060c087015161032087015109840892507f30644e72e131a029b85045b68181585d2833e84879b9709143e1f593f00000018060e087015161026087015109840892507f30644e72e131a029b85045b68181585d2833e84879b9709143e1f593f00000018061010087015161028087015109840892507f30644e72e131a029b85045b68181585d2833e84879b9709143e1f593f0000001806101208701516102a087015109840892507f30644e72e131a029b85045b68181585d2833e84879b9709143e1f593f0000001806101408701516102c087015109840892507f30644e72e131a029b85045b68181585d2833e84879b9709143e1f593f0000001806101608701516102e087015109840892507f30644e72e131a029b85045b68181585d2833e84879b9709143e1f593f00000018061018087015161030087015109840892507f30644e72e131a029b85045b68181585d2833e84879b9709143e1f593f0000001837f30644e72e131a029b85045b68181585d2833e84879b9709143e1f593f0000001030692506117ae836002600184610c61565b606085015192506117c4836101e0860183610bf2565b7f30644e72e131a029b85045b68181585d2833e84879b9709143e1f593f000000160608601516101808701510992507f30644e72e131a029b85045b68181585d2833e84879b9709143e1f593f00000017f2d1ba66f5941dc91017171fa69ec2bd0022a2a2d4115a009a93458fd4e26ecfb8409925061184883610220860183610bf2565b5050505050565b60006040516101e0830151815260206101e08401015160208201527f1e3b651c96c337f8f6266fadcef22dc97717b5d44b445a5ef799a6cd3cc564a060408201527f10b13ed45e1871ff867a120754de5bf5c1395ad0078891e1b81f284ef6df78ca60608201527f2b57d40b181c33d7331accce5e5b890345b051c33f74e24ab728b18a3f7b473e60808201527f241a20e6fc3bc59485fa2e92365b46bf48742e8fac0b18859306488928cdcf0860a082015261022083015160c08201526020610220840101517f30644e72e131a029b85045b68181585d97816a916871ca8d3c208c16d87cfd47817f30644e72e131a029b85045b68181585d97816a916871ca8d3c208c16d87cfd47030690508060e08301527f198e9393920d483a7260bfb731fb5d25f1aa493335a9e71297e485b7aef312c26101008301527f1800deef121f1e76426a00665e5c4479674322d4f75edadd46debd5cd992f6ed6101208301527f090689d0585ff075ec9e99ad690c3395bc4b313370b38ef355acdadcd122975b6101408301527f12c85ea5db8c6deb4aab71808dcb408fe3d1e7690c43d37b4ce6cc0166fa7daa6101608301526020826101808460086107d05a03fa825181169350505050919050565b6040516102c08101604052611a3084610206565b611a3b83828661027f565b611a4481610785565b611a4e838261082a565b611a58818561088d565b611a628185610d07565b611a6c8185610d33565b611a758161184f565b6102c082036040528060005260206000f35b6000604051905090565b600080fd5b600080fd5b600080fd5b600080fd5b6000601f19601f8301169050919050565b7f4e487b7100000000000000000000000000000000000000000000000000000000600052604160045260246000fd5b611aee82611aa5565b810181811067ffffffffffffffff82111715611b0d57611b0c611ab6565b5b80604052505050565b6000611b20611a87565b9050611b2c8282611ae5565b919050565b600067ffffffffffffffff821115611b4c57611b4b611ab6565b5b611b5582611aa5565b9050602081019050919050565b82818337600083830152505050565b6000611b84611b7f84611b31565b611b16565b905082815260208101848484011115611ba057611b9f611aa0565b5b611bab848285611b62565b509392505050565b600082601f830112611bc857611bc7611a9b565b5b8135611bd8848260208601611b71565b91505092915050565b600067ffffffffffffffff821115611bfc57611bfb611ab6565b5b602082029050602081019050919050565b600080fd5b6000819050919050565b611c2581611c12565b8114611c3057600080fd5b50565b600081359050611c4281611c1c565b92915050565b6000611c5b611c5684611be1565b611b16565b90508083825260208201905060208402830185811115611c7e57611c7d611c0d565b5b835b81811015611ca75780611c938882611c33565b845260208401935050602081019050611c80565b5050509392505050565b600082601f830112611cc657611cc5611a9b565b5b8135611cd6848260208601611c48565b91505092915050565b60008060408385031215611cf657611cf5611a91565b5b600083013567ffffffffffffffff811115611d1457611d13611a96565b5b611d2085828601611bb3565b925050602083013567ffffffffffffffff811115611d4157611d40611a96565b5b611d4d85828601611cb1565b9150509250929050565b60008115159050919050565b611d6c81611d57565b82525050565b6000602082019050611d876000830184611d63565b9291505056fea2646970667358221220f40151e1f02334e599ea3cec1e98933d2e3259f203b077c91496df8a7ea9f19964736f6c63430008180033",
  "linkReferences": {},
  "deployedLinkReferences": {}
}